:020000040000FA
:04000000A7EF7BF0FB
:10F6C20001C045F002C046F0120001C049F002C07C
:10F6D2004AF0120001C047F002C048F01200026E68
:10F6E20002508EEC7BF01200300ED36E040ED26EFE
:10F6F200000E9B6E1200000EBB6E000EBC6E9E9240
:10F70200060EBA6E12009EBA89EF7BF08CEF7BF088
:10F71200010E8DEF7BF0000E1200016E9EA894EF99
:10F722007BF096EF7BF08FEF7BF001C0ADFF120014
:10F73200000ECC6E000ECF6E000ECE6ECECF41F01C
:10F74200CFCF42F09E90010ECD6E120000EE60F01F
:10F75200200EEE6AE806FDE100EE4BF0090EEE6ABD
:10F76200E806FDE1000180EF7EF01C0EBD6E000E8A
:10F77200B66E800EB76E010EB96E000EBF6E000E31
:10F78200BE6EFC0E0F01491712001C0E666E000EB3
:10F79200646E800E656E010E636E000E686E000E62
:10F7A200676EE70E0F014917120022EC7CF075EC30
:10F7B2007BF0C6EC7BF0B6EC7BF07CEC7BF099EC5A
:10F7C2007BF00EEC7CF084EC7CF01200360E3A6E8C
:10F7D200000E3B6E000E2C6E000E2D6E34C02EF00D
:10F7E20035C02FF03A0E306E000E316EF2EC7CF026
:10F7F20012009EAAFFEF7BF001EF7CF0FAEF7BF0A4
:10F80200000E536EABA208EF7CF00AEF7CF00CEF17
:10F812007CF0AB98AB88AE501200D59CFD0ED76E33
:10F822007F0ED66ED650D7CF01F0026A01C002F029
:10F83200016A0110436E0250446EF2949F0ED56E1F
:10F842001200000E896E000E8A6E000E8B6EDC0EA8
:10F85200926E1F0E936EB90E946E3C0E0F013A6FAC
:10F862003F0E396F270E386F000E616EF18E120057
:10F8720001C003F002C004F0D89004320332D890E1
:10F88200043203320350BE6E01C003F0030E0316AE
:10F89200033AF00E0316BD50CF0B0310BD6E1200DB
:10F8A20001C003F002C004F0D89004320332D890B1
:10F8B200043203320350676E01C003F0030E0316D5
:10F8C200033AF00E03166650CF0B0310666E120059
:10F8D20001C003F002C004F071EF7CF0014A022A79
:10F8E20001C0D9FF02C0DAFFDF50D8A47BEF7CF061
:10F8F2007DEF7CF06FEF7CF00350015C016E0450F1
:10F902000258026E1200080EB86E900EAB6E240EF4
:10F91200AC6E190EAF6E000EB06E000E016E000ED0
:10F92200026E66EC7BF0000E016E000E026E6BEC56
:10F932007BF0000E016E000E026E61EC7BF0000E99
:10F94200536E1200000E126E000E116EB4EF7CF0B8
:10F9520010C003F0046A0EC005F00FC006F022ECDE
:10F962007DF0114A122A11500C24D96E12500D202A
:10F97200DA6EDF50106E1050D8A4C2EF7CF0C4EFE4
:10F982007CF0A9EF7CF012004D504E10D8A4CCEFC1
:10F992007CF0CEEF7CF0D4EF7CF04DC021F04EC075
:10F9A20022F0DAEF7CF0FF0E4D24216EFF0E4E2086
:10F9B200226E20C060F0000E0001616F1EC013F0C5
:10F9C2001FC014F0600E156E000E166E21C017F0E7
:10F9D20022C018F06DEC7DF013C01EF014C01FF0B1
:10F9E20012002EC032F02FC033F0000E4C6E000E0B
:10F9F2004B6E0EEF7DF02CC023F02DC024F0320EA2
:10FA0200256E000E266E30C027F031C028F0CEECF5
:10FA12007DF023504B2624504C2232C0F6FF33C0D7
:10FA2200F7FFF86A0800F5500009D8A41BEF7DF033
:10FA32001DEF7DF0FCEF7CF04BC02CF04CC02DF0A4
:10FA4200120005500610D8B429EF7DF02BEF7DF09F
:10FA520034EF7DF005500610D8A432EF7DF034EF7C
:10FA62007DF039EF7DF0035070EC7BF06CEF7DF0B0
:10FA720020EE04F00550D9260650DA22DE50DE10C0
:10FA8200D8B446EF7DF048EF7DF063EF7DF020EED5
:10FA920004F00550D9260650DA2210EE02F0055085
:10FAA200E1260650E222DE50E65CE650800A0B6E4A
:10FAB200DE50800A0B58D8B061EF7DF063EF7DF025
:10FAC2006CEF7DF020EE02F00550D9260650DA22C6
:10FAD200DE2A000EDD22120051A072EF7DF074EFDB
:10FAE2007DF07EEF7DF015C00CF016C00DF013C056
:10FAF2000EF014C00FF0A3EC7CF018BE83EF7DF083
:10FB020085EF7DF08BEF7DF017C01CF018C01DF063
:10FB12008FEF7DF0000E1D6E000E1C6E000E1B6E30
:10FB2200000E1A6EA1EF7DF0000E046E200E036E21
:10FB320013C005F014C006F022EC7DF01A4A1B2A0D
:10FB42001C501A5C1B50800A196E1D50800A1958ED
:10FB5200D8A0AEEF7DF0B0EF7DF095EF7DF051B023
:10FB6200B5EF7DF0B7EF7DF0C1EF7DF015C00CF081
:10FB720016C00DF013C00EF014C00FF0A3EC7CF011
:10FB820015C001F016C002F069EC7CF01C50012493
:10FB9200136E1D500220146E120025C0D9FF26C01C
:10FBA200DAFFDECFF6FFDDCFF7FFF86A0800F55087
:10FBB200250AD8A4DFEF7DF0E1EF7DF063EF7EF060
:10FBC20025C0D9FF26C0DAFFDE2A000EDD22000E94
:10FBD2004E6E000E4D6E4DC051F04EC052F04F6849
:10FBE200506825C0D9FF26C0DAFFDECFF6FFDDCF91
:10FBF200F7FFF86A0800F550630AD8A403EF7EF015
:10FC020005EF7EF02CEF7EF025C0D9FF26C0DAFF8B
:10FC1200DE2A000EDD2227C0D9FF28C0DAFFDFCF9F
:10FC220029F0020EDE26DFCF2AF0000EDD2229C0E7
:10FC3200D9FF2AC0DAFFDF502B6E23C01EF024C08A
:10FC42001FF02BC020F0C5EC7CF01EC023F01FC0BB
:10FC520024F07FEF7EF025C0D9FF26C0DAFFDECF89
:10FC6200F6FFDDCFF7FFF86A0800F550250AD8A4A1
:10FC72003DEF7EF03FEF7EF056EF7EF025C0D9FFDC
:10FC820026C0DAFFDE2A000EDD22000E046E250EEB
:10FC9200036E23C005F024C006F022EC7DF0000EB6
:10FCA200246E010E236E7FEF7EF025C0D9FF26C0A1
:10FCB200DAFFDE2A000EDD22000E246E000E236E15
:10FCC2007FEF7EF025C0D9FF26C0DAFFDECFF6FF38
:10FCD200DDCFF7FFF86A0800F550036E046A23C00F
:10FCE20005F024C006F022EC7DF025C0D9FF26C025
:10FCF200DAFFDE2A000EDD2250EF7EF01200000E47
:10FD02003E6ED6EC7BF08990000E026E016839ECF3
:10FD12007CF0000E026E016851EC7CF0B10E346E84
:10FD2200FF0E356EE7EC7BF0290E346EFF0E356E5A
:10FD3200E7EC7BF00F0E346EFF0E356EE7EC7BF0D6
:10FD4200F90E346EFF0E356EE7EC7BF084EC7BF03F
:10FD52000009D8B4AFEF7EF0B1EF7EF0A7EF7EF0EE
:10FD6200FAEC7BF03F6E4AEF7FF0DB0E346EFE0E54
:10FD7200356EE7EC7BF0D60E346EFF0E356EE7EC97
:10FD82007BF0F20E346EFF0E356EE7EC7BF0720EF6
:10FD9200346EFF0E356EE7EC7BF0430E346EFF0ED1
:10FDA200356EE7EC7BF09D0E346EFF0E356EE7ECA0
:10FDB2007BF0DB0E346EFE0E356EE7EC7BF0A7EFC8
:10FDC2007EF0E50E346EFF0E356EE7EC7BF0A7EFAA
:10FDD2007EF0000E406E270E346EFF0E356EE7EC9D
:10FDE2007BF0402A270E4064F9EF7EF0FBEF7EF0B5
:10FDF200ECEF7EF0FF00A7EF7EF0000E406E270EC4
:10FE0200346EFF0E356EE7EC7BF0402A270E40641D
:10FE12000DEF7FF00FEF7FF000EF7FF0A7EF7EF0A6
:10FE22003E50D8B417EF7FF019EF7FF024EF7FF048
:10FE3200000E3E6E89905C0E346EFF0E356EE7EC5E
:10FE42007BF0A7EF7EF0010E3E6E8A8C8A9E8A8A34
:10FE520089928980000E026E800E016E39EC7CF070
:10FE6200000E026E800E016E51EC7CF0880E346E34
:10FE7200FF0E356EE7EC7BF0A7EF7EF0C50E346E19
:10FE8200FF0E356E3FC036F0376AE7EC7BF0A7EF26
:10FE92007EF03F503C6E3D6A3D50000AD8B454EFAC
:10FEA2007FF03FEF7FF03C503F0AD8B4B6EF7EF0D0
:10FEB200650AD8B4EAEF7EF0350AD8B4E2EF7EF0F4
:10FEC2001B0AD8B411EF7FF00E0AD8B4FEEF7EF011
:10FED2003FEF7FF000EF00F0002D2D2D2D2D2D2D69
:10FEE2002D2D2D2D2D2D2D2D2D2D2D2D2D2D2D2D40
:10FEF2002D2D2D2D2D2D2D2D2D2D2D2D2D2D2D2D30
:10FF02002D2D2D2D2D2D2D2D2D2D0D0A004F6273F2
:10FF12007461636C652D61766F6964696E672074C4
:10FF2200616E6B200D0A0046696E616C2070726F03
:10FF32006A656374207465726D696E616C200D0A66
:10FF4200007A3A20436C656172207468652074659A
:10FF5200726D696E616C2E0D0A004D6F746F727353
:10FF620020746F67676C6564206F66662E0D0A00E9
:10FF72005A3A2052657365742070726F63657373A9
:10FF82006F722E0D0A004D6F746F727320746F675B
:10FF9200676C6564206F6E2E0D0A00743A20546FF0
:10FFA20067676C65206D6F746F72732E0D0A004463
:10FFB2006576656C6F706D656E7420426F617264F8
:10FFC2000D0A00556E6B6E6F776E206B657920257A
:10FFD200630D0A003F3A2068656C70206D656E758E
:10FFE2000D0A006F3A2020202020206F6B0D0A009E
:0DFFF2006F3A206B0D0A000D0A3E20000042
:020000040020DA
:08000000FFFFFFFFFFFFFFFF00
:020000040030CA
:0E000000FF281F3CFFBF85FF0FC00FE00F4021
:00000001FF
