:020000040000FA
:040000001FEF00F0FE
:100008005582FACF09F0FBCF0AF0F2A60EEF00F006
:1000180010EF00F019EF00F0F2A015EF00F017EF65
:1000280000F019EF00F000EC07F00AC0FBFF09C070
:10003800FAFF5592110099EF06F0000E0001B76F14
:1000480073EC06F08990000E0C6E0B6830EC06F02D
:10005800000E0C6E0B6818EC06F08F0E0001AD6FE9
:10006800FF0EAE6F5FEC06F0D80E0001AD6FFE0E0E
:10007800AE6F5FEC06F0BE0E0001AD6FFE0EAE6F08
:100088005FEC06F0FA0E0001AD6FFF0EAE6F5FEC8D
:1000980006F0C00E0B6E0B0E0C6E1CEC07F0F28C0B
:1000A800F28E5EEF01F06D0EAD6FFE0EAE6F5FEC7F
:1000B80006F0D70E0001AD6FFF0EAE6F5FEC06F0D5
:1000C800F30E0001AD6FFF0EAE6F5FEC06F0500E41
:1000D8000001AD6FFF0EAE6F5FEC06F0F20E00018F
:1000E800AD6FFE0EAE6F5FEC06F07B0E0001AD6FDC
:1000F800FF0EAE6F5FEC06F0A10E0001AD6FFE0EB5
:10010800AE6F5FEC06F00B0E0001AD6FFF0EAE6F29
:100118005FEC06F06D0E0001AD6FFE0EAE6F5FEC8A
:1001280006F055EF00F0E60EAD6FFF0EAE6F5FEC18
:1001380006F055EF00F0000EB96FD60EAD6FFE0E4B
:10014800AE6F5FEC06F00001B92B270EB965AFEF73
:1001580000F0B1EF00F0A1EF00F0FF0055EF00F064
:10016800000EB96FD60EAD6FFE0EAE6F5FEC06F0E7
:100178000001B92B270EB965C4EF00F0C6EF00F0F7
:10018800B6EF00F055EF00F0B751D8B4CEEF00F05D
:10019800D0EF00F0DBEF00F0000EB76F89903A0E59
:1001A800AD6FFF0EAE6F5FEC06F055EF00F08A8C76
:1001B8008A9E8A8A89928980000E0C6E800E0B6E48
:1001C80030EC06F0000E0C6E800E0B6E18EC06F08C
:1001D800660E0001AD6FFF0EAE6F5FEC06F055EFD7
:1001E80000F08A84F294FF0E0C6EF60E0B6E17EC7C
:1001F80007F0F2A402EF01F004EF01F0FDEF00F0C8
:100208008A94C70E0001AD6FFF0EAE6F6AC0AFF0E3
:100218006BC0B0F05FEC06F055EF00F0230EAD6F49
:10022800FF0EAE6F5FEC06F0000E0001656F000E6A
:10023800646F000E636F000E626FF294FF0E0C6E17
:10024800F60E0B6E17EC07F0F2A42DEF01F02FEF6E
:1002580001F028EF01F00001624B632B3C0E625D58
:10026800010E6359D8A03BEF01F03DEF01F021EFFB
:1002780001F0644B652B3C0E645D010E6559D8A0F6
:1002880048EF01F04AEF01F01DEF01F0A30EAD6F4A
:10029800FF0EAE6F5FEC06F055EF00F0B60EAD6FD7
:1002A800FF0EAE6F000EB06F740EAF6F5FEC06F00E
:1002B80055EF00F0740E0001B56F000EB66FB65121
:1002C800000AD8B46AEF01F052EF01F0B5513F0AC5
:1002D800D8B457EF00F0650AD8B49FEF00F0390A98
:1002E800D8B412EF01F00C0AD8B497EF00F01D0A49
:1002F800D8B4F5EF00F0060AD8B4C8EF00F00E0A3B
:10030800D8B4B4EF00F052EF01F01FEF00F096C040
:10031800D9FF97C0DAFFDECFF6FFDDCFF7FFF86A27
:100328000800F550250AD8A49CEF01F09EEF01F0D3
:1003380078EF02F096C0D9FF97C0DAFFDE2A000EE8
:10034800DD22000E4B6E000E4A6E4AC04EF04BC0C6
:100358004FF04C684D6896C0D9FF97C0DAFFDECFE2
:10036800F6FFDDCFF7FFF86A0800F550630AD8A456
:10037800C0EF01F0C2EF01F0EAEF01F096C0D9FF3B
:1003880097C0DAFFDE2A000EDD2298C0D9FF99C097
:10039800DAFFDFCF9AF0020EDE26DFCF9BF0000EE9
:1003A800DD229AC0D9FF9BC0DAFFDF500001A66F9B
:1003B80094C028F095C029F0A6C02AF053EC05F0A7
:1003C80028C094F029C095F094EF02F096C0D9FFA8
:1003D80097C0DAFFDECFF6FFDDCFF7FFF86A080037
:1003E800F550750AD8A4FBEF01F0FDEF01F03FEFDF
:1003F80002F096C0D9FF97C0DAFFDE2A000EDD2290
:1004080098C0D9FF99C0DAFFDFCF9AF0020EDE2636
:10041800DFCF9BF0000EDD229AC0D9FF9BC0DAFF28
:10042800DECF9CF0DDCF9DF09CC09EF09DC09FF07C
:100438000001A06BA16BA26BA36BA46BA56B94C00E
:1004480028F095C029F09EC02AF09FC02BF0A0C0CC
:100458002CF0A1C02DF0A2C02EF0A3C02FF0A4C094
:1004680030F0A5C031F095EC02F028C094F029C016
:1004780095F094EF02F096C0D9FF97C0DAFFDECF6F
:10048800F6FFDDCFF7FFF86A0800F550250AD8A473
:1004980050EF02F052EF02F06AEF02F096C0D9FF77
:1004A80097C0DAFFDE2A000EDD22000E0E6E250E42
:1004B8000D6E94C00FF095C010F0D6EC04F0000E4D
:1004C8000001956F010E946F94EF02F096C0D9FF6A
:1004D80097C0DAFFDE2A000EDD22000E0001956FBC
:1004E800000E946F94EF02F096C0D9FF97C0DAFF20
:1004F800DECFF6FFDDCFF7FFF86A0800F5500D6E86
:100508000E6A94C00FF095C010F0D6EC04F096C0B7
:10051800D9FF97C0DAFFDE2A000EDD2263EF02F072
:1005280012004DBE9AEF02F09CEF02F09DEF02F030
:100538004E924DBEAAEF02F04D5006E14C04D8B0E1
:10054800A8EF02F0AAEF02F0B0EF02F0000E3B6E47
:10055800010E3A6EB4EF02F04CC03AF04DC03BF0D9
:100568004AC03CF04BC03DF02AC03EF02BC03FF0E3
:100578002CC040F02DC041F02EC042F02FC043F0F7
:1005880030C044F031C045F0000E476E1F0E466E75
:10059800000E0001936F47EF03F04606D8A0470608
:1005A800740E4624D96E000E4720DA6E3EC00BF05A
:1005B8003FC00CF040C00DF041C00EF042C00FF03B
:1005C80043C010F044C011F045C012F00A0E136E7B
:1005D800000E146E000E156E000E166E000E176ECD
:1005E800000E186E000E196E000E1A6E0DEC04F057
:1005F8000BC032F00CC033F00DC034F00EC035F033
:100608000FC036F010C037F011C038F012C039F002
:100618003250300FDF6E3A06D8A03B063C06D8A011
:100628003D063EC00BF03FC00CF040C00DF041C08D
:100638000EF042C00FF043C010F044C011F045C0A6
:1006480012F00A0E136E000E146E000E156E000ED8
:10065800166E000E176E000E186E000E196E000E44
:100668001A6E95EC03F00BC03EF00CC03FF00DC0C5
:1006780040F00EC041F00FC042F010C043F011C06E
:1006880044F012C045F046504710D8B44EEF03F07E
:1006980050EF03F080EF03F03E503F104010411040
:1006A8004210431044104510D8A45DEF03F05FEFEB
:1006B80003F0D1EF02F03BBE6CEF03F03B5006E1D4
:1006C8003A04D8B06AEF03F06CEF03F0D1EF02F010
:1006D8003DBE77EF03F03D5008E13C04D8A077EF2A
:1006E80003F079EF03F080EF03F04EB27EEF03F0F2
:1006F80080EF03F0D1EF02F028C01DF029C01EF0F2
:10070800740E46241F6E000E4720206E3CC021F058
:100718003DC022F075EC04F01DC028F01EC029F081
:10072800120020EE1BF0070EDE6AE806FDE2135009
:100738001410151016101710181019101A10D8B414
:10074800A8EF03F0AAEF03F0FCEF03F0010E236E0D
:10075800B8EF03F0D8901336143615361636173618
:10076800183619361A36232A1AAEBDEF03F0BFEF32
:1007780003F0AEEF03F0D8901B361C361D361E363C
:100788001F3620362136223613500B5C14500C5875
:1007980015500D5816500E5817500F58185010581D
:1007A800195011581A501258D8A0DDEF03F0DFEF96
:1007B80003F0F0EF03F013500B5E14500C5A155071
:1007C8000D5A16500E5A17500F5A1850105A1950E1
:1007D800115A1A50125A1B80D8901A3219321832EC
:1007E80017321632153214321332232EBFEF03F0AC
:1007F8001BC00BF01CC00CF01DC00DF01EC00EF08D
:100808001FC00FF020C010F021C011F022C012F05C
:100818001200135014101510161017101810191074
:100828001A10D8B41AEF04F01CEF04F064EF04F0C7
:10083800010E1B6E2AEF04F0D890133614361536C5
:1008480016361736183619361A361B2A1AAE2FEFEF
:1008580004F031EF04F020EF04F013500B5C145057
:100868000C5815500D5816500E5817500F58185050
:100878001058195011581A501258D8A046EF04F0C1
:1008880048EF04F058EF04F013500B5E14500C5A64
:1008980015500D5A16500E5A17500F5A1850105A14
:1008A8001950115A1A50125AD8901A32193218324D
:1008B800173216321532143213321B2E31EF04F070
:1008C8000BC00BF00CC00CF00DC00DF00EC00EF0FC
:1008D8000FC00FF010C010F011C011F012C012F0CC
:1008E80012004EA07AEF04F07CEF04F086EF04F0DB
:1008F8001FC016F020C017F01DC018F01EC019F058
:1009080080EC05F022BE8BEF04F08DEF04F093EF3E
:1009180004F021C026F022C027F097EF04F0000E63
:10092800276E000E266E000E256E000E246EA9EFAF
:1009380004F0000E0E6E200E0D6E1DC00FF01EC0CE
:1009480010F0D6EC04F0244A252A2650245C2550C1
:10095800800A236E2750800A2358D8A0B6EF04F0E7
:10096800B8EF04F09DEF04F04EB0BDEF04F0BFEF18
:1009780004F0C9EF04F01FC016F020C017F01DC026
:1009880018F01EC019F080EC05F01FC00BF020C055
:100998000CF0FDEC05F026500B241D6E27500C20A2
:1009A8001E6E12000F501010D8B4DDEF04F0DFEF08
:1009B80004F0E8EF04F00F501010D8A4E6EF04F0AC
:1009C800E8EF04F0EDEF04F00D5012EC07F020EF23
:1009D80005F020EE04F00F50D9261050DA22DE5030
:1009E800DE10D8B4FAEF04F0FCEF04F017EF05F0CE
:1009F80020EE04F00F50D9261050DA2210EE02F043
:100A08000F50E1261050E222DE50E65CE650800AE4
:100A1800156EDE50800A1558D8B015EF05F017EF9F
:100A280005F020EF05F020EE02F00F50D926105007
:100A3800DA22DE2A000EDD221200A9C048F0AAC080
:100A480049F0000E0001616F000E606F3FEF05F086
:100A5800A7C094F0A8C095F0480E966F000E976F47
:100A6800ABC098F0ACC099F08BEC01F00001945148
:100A780060279551612348C0F6FF49C0F7FFF86A1F
:100A88000800F5500009D8A44CEF05F04EEF05F02A
:100A98002CEF05F060C0A7F061C0A8F012004A5022
:100AA8004B10D8A45AEF05F05CEF05F062EF05F0A3
:100AB8004AC02BF04BC02CF068EF05F0FF0E4A241B
:100AC8002B6EFF0E4B202C6E2AC074F0000E000116
:100AD800756F28C01DF029C01EF0740E1F6E000E21
:100AE800206E2BC021F02CC022F075EC04F01DC044
:100AF80028F01EC029F01200000E1C6E000E1B6E9E
:100B080091EF05F01AC00DF00E6A18C00FF019C069
:100B180010F0D6EC04F01B4A1C2A1B501624D96E80
:100B28001C501720DA6EDF501A6E1A50D8A49FEFA7
:100B380005F0A1EF05F086EF05F01200000E896EB2
:100B4800000E8A6E000E8B6EFC0E926E1B0E936E5C
:100B5800B90E946E3C0E0F013A6F2F0E396F2F0E9F
:100B6800386F000E616EF18E6288640E0B6E0E0E89
:100B78000C6E1CEC07F0F2861200080EB86E900E90
:100B8800AB6E240EAC6E820EAF6E060EB06E000E0B
:100B98000B6E000E0C6E26EC07F0000E0B6E000EAE
:100BA8000C6E21EC07F0000E0B6E000E0C6E2BEC99
:100BB80007F0000E546E120081A8E5EF05F0E7EF8C
:100BC80005F0EFEF05F0CAEC06F001C068F002C0CE
:100BD80069F0FCEF05F0CAEC06F001C066F002C04F
:100BE80067F000016851665D6A6F695167596B6FFC
:100BF80012000BC00DF00CC00EF005EF06F00B4A0A
:100C08000C2A0BC0D9FF0CC0DAFFDF50D8A40FEFB5
:100C180006F011EF06F003EF06F00D500B5C0B6EBB
:100C28000E500C580C6E12000BC00DF00CC00EF0DC
:100C3800D8900E320D32D8900E320D320D50676EAC
:100C48000BC00DF0030E0D160D3AF00E0D16665082
:100C5800CF0B0D10666E12000BC00DF00CC00EF01D
:100C6800D8900E320D32D8900E320D320D50BE6E25
:100C78000BC00DF0030E0D160D3AF00E0D16BD50FB
:100C8800CF0B0D10BD6E12000001BA51BB11D8B4C4
:100C980050EF06F052EF06F05EEF06F002D85EEF76
:100CA80006F00500FA6EBA51FD6EBB51FE6EFF6A82
:100CB800FA5012001200AF0E0001B36F000EB46FAD
:100CC800000EA76F000EA86FADC0A9F0AEC0AAF0C5
:100CD800B30EAB6F000EAC6F21EC05F0120030ECD8
:100CE80007F0A2EC05F0E7EC06F0AAEC06F0BAEC87
:100CF80006F00BEC07F0D9EC06F086EC06F0C1EC38
:100D080005F01200D59CD768F50ED66ED650D7CF11
:100D18000BF00C6A0BC00CF00B6A0B10506E0C50E9
:100D2800516EF294930ED56E120000EE60F0340E00
:100D3800EE6AE806FDE100EE4AF00B0EEE6AE80600
:100D4800FDE155905592000121EF00F03C0E666ED2
:100D5800000E646E800E656E010E636E000E686E86
:100D68007F0E676EE70E0F01491712003C0EBD6E2D
:100D7800000EB66E800EB76E010EB96E000EBF6E15
:100D88007F0EBE6EFC0E0F0149171200D6CF07F07A
:100D9800D7CF08F00850036E0750056E03C006F061
:100DA80005C001F006C002F01200000ECC6EFD0E68
:100DB800CF6E800ECE6ECECF6CF0CFCF6DF09E9002
:100DC800410ECD6E1200700ED36E040ED26E400E20
:100DD8009B6ED2AEF2EF06F0F4EF06F0EDEF06F000
:100DE80012000B6E9EA8FBEF06F0FDEF06F0F6EF83
:100DF80006F00BC0ADFF120062A805EF07F007EF81
:100E080007F009EF07F048EC06F0F2901200BB6813
:100E1800000EBC6E9E92040EBA6E12000C6E0C5040
:100E2800F5EC06F012000C50D76E0BC0D6FF12007E
:100E38000BC0BAF00CC0BBF012000BC070F00CC0B5
:100E480071F012000BC072F00CC073F012000BC0EE
:0E0E58006EF00CC06FF01200D09E120012005F
:10FE6C00002D2D2D2D2D2D2D2D2D2D2D2D2D2D2DE3
:10FE7C002D2D2D2D2D2D2D2D2D2D2D2D2D2D2D2DA6
:10FE8C002D2D2D2D2D2D2D2D2D2D2D2D2D2D2D2D96
:10FE9C002D2D0D0A00723A20526561642072616E3C
:10FEAC00676566696E6465722076616C75652E0D8A
:10FEBC000A004F62737461636C652D61766F6964BF
:10FECC00696E672074616E6B200D0A0046696E6165
:10FEDC006C2070726F6A656374207465726D696EE4
:10FEEC00616C200D0A007A3A20436C6561722074B3
:10FEFC006865207465726D696E616C2E0D0A006305
:10FF0C003A20546573742074696D65722070657243
:10FF1C00696F642E0D0A00456E746572696E6720F8
:10FF2C00666F72206C6F6F702E2E2E0D0A004D6F47
:10FF3C00746F727320746F67676C6564206F66668C
:10FF4C002E0D0A005A3A2052657365742070726F38
:10FF5C00636573736F722E0D0A004D6F746F72733D
:10FF6C0020746F67676C6564206F6E2E0D0A0074C9
:10FF7C003A20546F67676C65206D6F746F72732EC7
:10FF8C000D0A00446576656C6F706D656E74204269
:10FF9C006F6172640D0A0045786974656420666F40
:10FFAC0072206C6F6F702E0D0A00556E6B6E6F7732
:10FFBC006E206B65792025630D0A004469737461AA
:10FFCC006E6365203D2025750D0A003F3A2068655B
:10FFDC006C70206D656E750D0A006F3A2020202024
:10FFEC0020206F6B0D0A006F3A206B0D0A000D0A72
:04FFFC003E200000A3
:020000040020DA
:08000000FFFFFFFFFFFFFFFF00
:020000040030CA
:0E000000FF281F3CFFBF85FF0FC00FE00F4021
:00000001FF
