:020000040000FA
:040000001FEF00F0FE
:100008005882FACF05F0FBCF06F0F2AA0EEF00F007
:1000180010EF00F019EF00F0F2A415EF00F017EF61
:1000280000F019EF00F0C9EC05F006C0FBFF05C0B1
:10003800FAFF58921100BCEF06F0000E0001A16F04
:1000480089EC06F08990000E086E076832EC06F01D
:10005800000E086E07681AEC06F0B20E0001996FE0
:10006800FF0E9A6F61EC06F02A0E0001996FFF0EE1
:100078009A6F61EC06F0100E0001996FFF0E9A6FEF
:1000880061EC06F0FA0E0001996FFF0E9A6F61ECB1
:1000980006F00E0E076E090E086E02EC07F0F28CE1
:1000A800F28EE4EC06F00009D8B45DEF00F05FEFE3
:1000B80000F055EF00F075EC06F00001A26F15EFA7
:1000C80001F09F0E996FFE0E9A6F61EC06F0D70E45
:1000D8000001996FFF0E9A6F61EC06F0F30E0001B4
:1000E800996FFF0E9A6F61EC06F0730E0001996F1D
:1000F800FF0E9A6F61EC06F0440E0001996FFF0E37
:100108009A6F61EC06F09E0E0001996FFF0E9A6FD0
:1001180061EC06F0F30E0001996FFE0E9A6F61EC28
:1001280006F09F0E0001996FFE0E9A6F61EC06F0C3
:1001380055EF00F0E60E996FFF0E9A6F61EC06F02E
:1001480055EF00F0000EA36F280E996FFF0E9A6FFF
:1001580061EC06F00001A32B270EA365B6EF00F0B3
:10016800B8EF00F0A8EF00F0FF0055EF00F0000E28
:10017800A36F280E996FFF0E9A6F61EC06F00001CD
:10018800A32B270EA365CBEF00F0CDEF00F0BDEF5A
:1001980000F055EF00F0A151D8B4D5EF00F0D7EF3B
:1001A80000F0E2EF00F0000EA16F89905D0E996FEC
:1001B800FF0E9A6F61EC06F055EF00F0010EA16F8B
:1001C8008A8C8A9E8A8A89928980000E086E800E9F
:1001D800076E32EC06F0000E086E800E076E1AEC01
:1001E80006F0890E0001996FFF0E9A6F61EC06F018
:1001F80055EF00F0D30E996FFE0E9A6F66C09BF014
:1002080067C09CF061EC06F055EF00F0C60E996FE0
:10021800FF0E9A6FA2C09BF09C6B61EC06F055EF45
:1002280000F0A251506E516A5150000AD8B41FEF25
:1002380001F00AEF01F050503F0AD8B465EF00F022
:10024800650AD8B4A6EF00F0350AD8B49EEF00F0DE
:100258001D0AD8B4FEEF00F0060AD8B4CFEF00F0BC
:100268000E0AD8B4BBEF00F00AEF01F01FEF00F060
:1002780046C0D9FF47C0DAFFDECFF6FFDDCFF7FF74
:10028800F86A0800F550250AD8A44DEF01F04FEFA1
:1002980001F026EF02F046C0D9FF47C0DAFFDE2A98
:1002A800000EDD22000E536E000E526E52C064F036
:1002B80053C065F000016269636946C0D9FF47C051
:1002C800DAFFDECFF6FFDDCFF7FFF86A0800F5505A
:1002D800630AD8A472EF01F074EF01F09BEF01F00C
:1002E80046C0D9FF47C0DAFFDE2A000EDD2248C02B
:1002F800D9FF49C0DAFFDFCF4AF0020EDE26DFCF92
:100308004BF0000EDD224AC0D9FF4BC0DAFFDF50A8
:10031800926F44C024F045C025F092C026F05BECF3
:1003280005F024C044F025C045F042EF02F046C075
:10033800D9FF47C0DAFFDECFF6FFDDCFF7FFF86A57
:100348000800F550750AD8A4ACEF01F0AEEF01F043
:10035800EFEF01F046C0D9FF47C0DAFFDE2A000EF2
:10036800DD2248C0D9FF49C0DAFFDFCF4AF0020ECC
:10037800DE26DFCF4BF0000EDD224AC0D9FF4BC08E
:10038800DAFFDECF4CF0DDCF4DF04CC08AF04DC027
:100398008BF08C6B8D6B8E6B8F6B906B916B44C0FD
:1003A80024F045C025F08AC026F08BC027F08CC009
:1003B80028F08DC029F08EC02AF08FC02BF090C095
:1003C8002CF091C02DF043EC02F024C044F025C07D
:1003D80045F042EF02F046C0D9FF47C0DAFFDECF52
:1003E800F6FFDDCFF7FFF86A0800F550250AD8A414
:1003F80000EF02F002EF02F019EF02F046C0D9FF59
:1004080047C0DAFFDE2A000EDD22000E0A6E250E36
:10041800096E44C00BF045C00CF0DEEC04F0000E91
:10042800456E010E446E42EF02F046C0D9FF47C048
:10043800DAFFDE2A000EDD22000E456E000E446E45
:1004480042EF02F046C0D9FF47C0DAFFDECFF6FF21
:10045800DDCFF7FFF86A0800F550096E0A6A44C054
:100468000BF045C00CF0DEEC04F046C0D9FF47C0E5
:10047800DAFFDE2A000EDD2213EF02F0120000017F
:1004880063BF49EF02F04BEF02F04CEF02F06493C8
:1004980063BF59EF02F0635106E16205D8B057EF28
:1004A80002F059EF02F05FEF02F0000E376E010E16
:1004B800366E63EF02F062C036F063C037F052C0A8
:1004C80038F053C039F026C03AF027C03BF028C0B6
:1004D8003CF029C03DF02AC03EF02BC03FF02CC0B4
:1004E80040F02DC041F0000E436E1F0E426E000E0C
:1004F800896FF5EF02F04206D8A043066A0E42243F
:10050800D96E000E4320DA6E3AC007F03BC008F0FF
:100518003CC009F03DC00AF03EC00BF03FC00CF0F3
:1005280040C00DF041C00EF00A0E0F6E000E106EA6
:10053800000E116E000E126E000E136E000E146E79
:10054800000E156E000E166EBCEC03F007C02EF000
:1005580008C02FF009C030F00AC031F00BC032F0EB
:100568000CC033F00DC034F00EC035F02E50300FF3
:10057800DF6E3606D8A037063806D8A039063AC046
:1005880007F03BC008F03CC009F03DC00AF03EC08F
:100598000BF03FC00CF040C00DF041C00EF00A0E49
:1005A8000F6E000E106E000E116E000E126E000E11
:1005B800136E000E146E000E156E000E166E44ECCF
:1005C80003F007C03AF008C03BF009C03CF00AC08D
:1005D8003DF00BC03EF00CC03FF00DC040F00EC027
:1005E80041F042504310D8B4FCEF02F0FEEF02F0A5
:1005F8002FEF03F03A503B103C103D103E103F10D7
:1006080040104110D8A40BEF03F00DEF03F07FEF7B
:1006180002F037BE1AEF03F0375006E13604D8B0BF
:1006280018EF03F01AEF03F07FEF02F039BE25EF61
:1006380003F0395008E13804D8A025EF03F027EF7C
:1006480003F02FEF03F0000164B32DEF03F02FEF59
:1006580003F07FEF02F024C019F025C01AF06A0EEB
:1006680042241B6E000E43201C6E38C01DF039C09A
:100678001EF024EC04F019C024F01AC025F0120072
:1006880020EE17F0070EDE6AE806FDE20F501010A4
:10069800111012101310141015101610D8B457EFAB
:1006A80003F059EF03F0ABEF03F0010E1F6E67EF95
:1006B80003F0D8900F36103611361236133614362A
:1006C800153616361F2A16AE6CEF03F06EEF03F0E0
:1006D8005DEF03F0D8901736183619361A361B36E0
:1006E8001C361D361E360F50075C10500858115026
:1006F800095812500A5813500B5814500C581550DA
:100708000D5816500E58D8A08CEF03F08EEF03F05A
:100718009FEF03F00F50075E1050085A1150095A06
:1007280012500A5A13500B5A14500C5A15500D5A9D
:1007380016500E5A1780D8901632153214321332CA
:100748001232113210320F321F2E6EEF03F017C023
:1007580007F018C008F019C009F01AC00AF01BC049
:100768000BF01CC00CF01DC00DF01EC00EF01200E6
:100778000F5010101110121013101410151016101D
:10078800D8B4C9EF03F0CBEF03F013EF04F0010E78
:10079800176ED9EF03F0D8900F361036113612368F
:1007A8001336143615361636172A16AEDEEF03F052
:1007B800E0EF03F0CFEF03F00F50075C105008583C
:1007C8001150095812500A5813500B5814500C580D
:1007D80015500D5816500E58D8A0F5EF03F0F7EF46
:1007E80003F007EF04F00F50075E1050085A11503D
:1007F800095A12500A5A13500B5A14500C5A1550D1
:100808000D5A16500E5AD890163215321432133229
:100818001232113210320F32172EE0EF03F007C0F8
:1008280007F008C008F009C009F00AC00AF00BC0B8
:100838000BF00CC00CF00DC00DF00EC00EF0120045
:10084800000164A12AEF04F02CEF04F036EF04F065
:100858001BC012F01CC013F019C014F01AC015F018
:1008680088EC05F01EBE3BEF04F03DEF04F043EFCB
:1008780004F01DC022F01EC023F047EF04F0000E64
:10088800236E000E226E000E216E000E206E59EFB0
:1008980004F0000E0A6E200E096E19C00BF01AC083
:1008A8000CF0DEEC04F0204A212A2250205C215072
:1008B800800A1F6E2350800A1F58D8A066EF04F0E4
:1008C80068EF04F04DEF04F0000164B16EEF04F03E
:1008D80070EF04F07AEF04F01BC012F01CC013F0A4
:1008E80019C014F01AC015F088EC05F01BC007F009
:1008F8001CC008F0E5EC05F022500724196E2350BF
:1009080008201A6E1200C3EF04F08A84010E546E98
:10091800FF0E026EF60E016E16EC07F0DCEF04F027
:100928008A940A0E00016827000E692381B09FEFA0
:1009380004F0A1EF04F0ACEF04F0CD0E685D5B0E9F
:100948006959D8A0AAEF04F0ACEF04F08CEF04F0DA
:10095800020E546E8CEF04F068C066F069C067F050
:10096800000E0001696F000E686F000E546E8A0E4B
:10097800026ED00E016E16EC07F0DCEF04F0545056
:10098800036E046A0450000AD8B4CDEF04F0DCEF1B
:1009980004F00350000AD8B489EF04F0010AD8B46F
:1009A80094EF04F0030AD8B4B0EF04F0DCEF04F0DD
:1009B800F29412000B500C10D8B4E5EF04F0E7EFF6
:1009C80004F0F0EF04F00B500C10D8A4EEEF04F094
:1009D800F0EF04F0F5EF04F00950FDEC06F028EF15
:1009E80005F020EE04F00B50D9260C50DA22DE5028
:1009F800DE10D8B402EF05F004EF05F01FEF05F0A4
:100A080020EE04F00B50D9260C50DA2210EE02F03A
:100A18000B50E1260C50E222DE50E65CE650800ADC
:100A2800116EDE50800A1158D8B01DEF05F01FEF87
:100A380005F028EF05F020EE02F00B50D9260C50F7
:100A4800DA22DE2A000EDD22120095C04EF096C092
:100A58004FF0000E0001616F000E606F47EF05F068
:100A680093C044F094C045F04E0E466E000E476E9B
:100A780097C048F098C049F03CEC01F044500001A0
:100A88006027455061234EC0F6FF4FC0F7FFF86A54
:100A98000800F5500009D8A454EF05F056EF05F00A
:100AA80034EF05F060C093F061C094F0120052502A
:100AB8005310D8A462EF05F064EF05F06AEF05F073
:100AC80052C027F053C028F070EF05F0FF0E5224F3
:100AD800276EFF0E5320286E26C06AF0000E000114
:100AE8006B6F24C019F025C01AF06A0E1B6E000E39
:100AF8001C6E27C01DF028C01EF024EC04F019C09D
:100B080024F01AC025F01200000E186E000E176EA1
:100B180099EF05F016C009F00A6A14C00BF015C069
:100B28000CF0DEEC04F0174A182A17501224D96E7C
:100B380018501320DA6EDF50166E1650D8A4A7EF9F
:100B480005F0A9EF05F08EEF05F01200080EB86E5B
:100B5800900EAB6E240EAC6E190EAF6E000EB06E1A
:100B6800000E076E000E086E0CEC07F0000E076E04
:100B7800000E086E07EC07F0000E076E000E086EF8
:100B880011EC07F0000E556E1200F2945750D76E14
:100B980056C0D6FF0001A651A711D8B4D6EF05F06C
:100BA800D8EF05F0E4EF05F002D8E4EF05F0050012
:100BB800FA6EA651FD6EA751FE6EFF6AFA5012003A
:100BC800120007C009F008C00AF0EDEF05F0074A67
:100BD800082A07C0D9FF08C0DAFFDF50D8A4F7EF0A
:100BE80005F0F9EF05F0EBEF05F00950075C076E2B
:100BF8000A500858086E1200D59CD768D70ED66ED2
:100C0800D650D7CF09F00A6A09C00AF0096A091054
:100C1800566E0A50576EF294F28A3A0E076E0E0E0E
:100C2800086E02EC07F0930ED56E120007C009F0AB
:100C380008C00AF0D8900A320932D8900A3209322C
:100C48000950676E07C009F0030E0916093AF00E3D
:100C580009166650CF0B0910666E120007C009F01E
:100C680008C00AF0D8900A320932D8900A320932FC
:100C78000950BE6E07C009F0030E0916093AF00EB6
:100C88000916BD50CF0B0910BD6E1200000E896EFB
:100C9800000E8A6E000E8B6EFC0E926E1B0E936E0B
:100CA800B90E946E3C0E0F013A6F3E0E396F2F0E3F
:100CB800386F000E616EF18E12009B0E00019F6F5F
:100CC800000EA06F000E936F000E946F99C095F000
:100CD8009AC096F09F0E976F000E986F29EC05F05A
:100CE80012009EAA7AEF06F07CEF06F075EF06F088
:100CF800000E556EABA283EF06F085EF06F087EF86
:100D080006F0AB98AB88AE5012001BEC07F04AEC2B
:100D180006F0F6EC06F09CEC06F0ACEC06F0EEEC17
:100D280006F0CBEC06F000EC06F0AAEC05F0120099
:100D38001C0E666E000E646E800E656E010E636E8C
:100D4800000E686E000E676EE70E0F01491712005D
:100D58001C0EBD6E000EB66E800EB76E010EB96E1B
:100D6800000EBF6E000EBE6EFC0E0F01491712007A
:100D780000EE60F02A0EEE6AE806FDE1556A546A54
:100D8800536A526A58905892000121EF00F0000E01
:100D9800CC6E000ECF6E000ECE6ECECFA4F0CFCFAD
:100DA800A5F09E90010ECD6E1200076E9EA8DFEF93
:100DB80006F0E1EF06F0DAEF06F007C0ADFF12002B
:100DC8009EBAE9EF06F0ECEF06F0010EEDEF06F043
:100DD800000E1200000EBB6E000EBC6E9E92060E38
:100DE800BA6E1200300ED36E040ED26E000E9B6ED9
:100DF8001200086E0850D9EC06F0120007C0A6F0E1
:100E080008C0A7F0120007C0AAF008C0ABF0120093
:100E180007C0ACF008C0ADF0120007C0A8F008C0C9
:100E2800A9F012000250D76E01C0D6FF1200D09E62
:040E38001200120092
:10FE9E00002D2D2D2D2D2D2D2D2D2D2D2D2D2D2DB1
:10FEAE002D2D2D2D2D2D2D2D2D2D2D2D2D2D2D2D74
:10FEBE002D2D2D2D2D2D2D2D2D2D2D2D2D2D2D2D64
:10FECE002D2D0D0A0043757272656E742072616E6F
:10FEDE00676566696E6465722076616C75653A2039
:10FEEE0025750D0A00723A20526561642072616EAA
:10FEFE00676566696E6465722076616C75652E0D38
:10FF0E000A004F62737461636C652D61766F69646C
:10FF1E00696E672074616E6B200D0A0046696E6112
:10FF2E006C2070726F6A656374207465726D696E91
:10FF3E00616C200D0A007A3A20436C656172207460
:10FF4E006865207465726D696E616C2E0D0A004DC8
:10FF5E006F746F727320746F67676C6564206F6661
:10FF6E00662E0D0A005A3A2052657365742070721F
:10FF7E006F636573736F722E0D0A004D6F746F721F
:10FF8E007320746F67676C6564206F6E2E0D0A00A8
:10FF9E00743A20546F67676C65206D6F746F72735F
:10FFAE002E0D0A00446576656C6F706D656E74205B
:10FFBE00426F6172640D0A00556E6B6E6F776E2024
:10FFCE006B65792025630D0A003F3A2068656C70D9
:10FFDE00206D656E750D0A006F3A202020202020BE
:10FFEE006F6B0D0A006F3A206B0D0A000D0A3E2052
:02FFFE00000001
:020000040020DA
:08000000FFFFFFFFFFFFFFFF00
:020000040030CA
:0E000000FF281F3CFFBF85FF0FC00FE00F4021
:00000001FF
