:020000040000FA
:040000001FEF00F0FE
:100008005D82FACF01F0FBCF02F0F2A60EEF00F00E
:1000180010EF00F019EF00F0F2A015EF00F017EF65
:1000280000F019EF00F0D9EC06F002C0FBFF01C0A8
:10003800FAFF5D921100C1EF06F0000E0001A76FF4
:100048005FEC06F08990000E046E036807EC06F07A
:10005800000E046E0368EFEC05F08F0E00019D6F33
:10006800FF0E9E6F4BEC06F0D80E00019D6FFE0E42
:100078009E6F4BEC06F0BE0E00019D6FFE0E9E6F4C
:100088004BEC06F0FA0E00019D6FFF0E9E6F4BECD5
:1000980006F0F28CF28EE4EC06F00009D8B457EFC3
:1000A80000F059EF00F04FEF00F036EC06F00001D9
:1000B800A86F53EF01F06D0E9D6FFE0E9E6F4BEC17
:1000C80006F0D70E00019D6FFF0E9E6F4BEC06F0F9
:1000D800F30E00019D6FFF0E9E6F4BEC06F0500E65
:1000E80000019D6FFF0E9E6F4BEC06F0F20E0001B3
:1000F8009D6FFE0E9E6F4BEC06F07B0E00019D6F10
:10010800FF0E9E6F4BEC06F0A10E00019D6FFE0ED8
:100118009E6F4BEC06F00B0E00019D6FFF0E9E6F5D
:100128004BEC06F06D0E00019D6FFE0E9E6F4BECC2
:1001380006F04FEF00F0E60E9D6FFF0E9E6F4BEC42
:1001480006F04FEF00F0000EA96FD60E9D6FFE0E61
:100158009E6F4BEC06F00001A92B270EA965B7EF9F
:1001680000F0B9EF00F0A9EF00F0FF004FEF00F04A
:10017800000EA96FD60E9D6FFE0E9E6F4BEC06F01B
:100188000001A92B270EA965CCEF00F0CEEF00F0F7
:10019800BEEF00F04FEF00F0A751D8B4D6EF00F053
:1001A800D8EF00F0E3EF00F0000EA76F89903A0E49
:1001B8009D6FFF0E9E6F4BEC06F04FEF00F0010EA7
:1001C800A76F8A8C8A9E8A8A89928980000E046E1B
:1001D800800E036E07EC06F0000E046E800E036EB0
:1001E800EFEC05F0660E00019D6FFF0E9E6F4BEC65
:1001F80006F04FEF00F08A84F294FF0E046EF60EBC
:10020800036EFAEC06F0F2A40CEF01F00EEF01F029
:1002180007EF01F08A94C70E00019D6FFF0E9E6FD5
:1002280070C09FF071C0A0F04BEC06F04FEF00F0EB
:10023800230E9D6FFF0E9E6F4BEC06F0000E000123
:10024800A96F000E696F000E686FF294FF0E046EBE
:10025800F60E036EFAEC06F0F2A435EF01F037EF74
:1002680001F030EF01F00001684B692B3C0E685D2E
:10027800010E6959D8A043EF01F045EF01F029EFCD
:1002880001F0A92B25EF01F0B60E9D6FFF0E9E6FB2
:10029800A8C09FF0A06B4BEC06F04FEF00F0A85100
:1002A800A56FA66BA651000AD8B45DEF01F048EF20
:1002B80001F0A5513F0AD8B45FEF00F0650AD8B441
:1002C800A7EF00F0390AD8B41CEF01F00C0AD8B433
:1002D8009FEF00F01D0AD8B4FFEF00F0060AD8B46B
:1002E800D0EF00F00E0AD8B4BCEF00F048EF01F0F0
:1002F8001FEF00F042C0D9FF43C0DAFFDECFF6FFA0
:10030800DDCFF7FFF86A0800F550250AD8A48FEF6B
:1003180001F091EF01F068EF02F042C0D9FF43C04D
:10032800DAFFDE2A000EDD22000E0001636F000EE8
:10033800626F62C066F063C067F06469656942C055
:10034800D9FF43C0DAFFDECFF6FFDDCFF7FFF86A4B
:100358000800F550630AD8A4B4EF01F0B6EF01F035
:10036800DDEF01F042C0D9FF43C0DAFFDE2A000EFC
:10037800DD2244C0D9FF45C0DAFFDFCF46F0020EC8
:10038800DE26DFCF47F0000EDD2246C0D9FF47C08A
:10039800DAFFDF50526E40C020F041C021F052C059
:1003A80022F046EC05F020C040F021C041F084EF77
:1003B80002F042C0D9FF43C0DAFFDECFF6FFDDCF3F
:1003C800F7FFF86A0800F550750AD8A4EEEF01F0B7
:1003D800F0EF01F031EF02F042C0D9FF43C0DAFF7D
:1003E800DE2A000EDD2244C0D9FF45C0DAFFDFCF88
:1003F80046F0020EDE26DFCF47F0000EDD2246C0B3
:10040800D9FF47C0DAFFDECF48F0DDCF49F048C05A
:100418004AF049C04BF04C6A4D6A4E6A4F6A506ABE
:10042800516A40C020F041C021F04AC022F04BC0C0
:1004380023F04CC024F04DC025F04EC026F04FC02C
:1004480027F050C028F051C029F085EC02F020C0F8
:1004580040F021C041F084EF02F042C0D9FF43C010
:10046800DAFFDECFF6FFDDCFF7FFF86A0800F550B8
:10047800250AD8A442EF02F044EF02F05BEF02F045
:1004880042C0D9FF43C0DAFFDE2A000EDD22000E8B
:10049800066E250E056E40C007F041C008F0C9EC95
:1004A80004F0000E416E010E406E84EF02F042C06F
:1004B800D9FF43C0DAFFDE2A000EDD22000E416EAE
:1004C800000E406E84EF02F042C0D9FF43C0DAFF4D
:1004D800DECFF6FFDDCFF7FFF86A0800F550056EAE
:1004E800066A40C007F041C008F0C9EC04F042C0F9
:1004F800D9FF43C0DAFFDE2A000EDD2255EF02F0F5
:100508001200000165BF8BEF02F08DEF02F08EEF55
:1005180002F0669365BF9BEF02F0655106E1640542
:10052800D8B099EF02F09BEF02F0A1EF02F0000EB5
:10053800336E010E326EA5EF02F064C032F065C072
:1005480033F062C034F063C035F022C036F023C007
:1005580037F024C038F025C039F026C03AF027C05B
:100568003BF028C03CF029C03DF0000E3F6E1F0E46
:100578003E6E000E9C6F37EF03F03E06D8A03F0694
:100588007D0E3E24D96E000E3F20DA6E36C003F091
:1005980037C004F038C005F039C006F03AC007F09B
:1005A8003BC008F03CC009F03DC00AF00A0E0B6ED3
:1005B800000E0C6E000E0D6E000E0E6E000E0F6E0D
:1005C800000E106E000E116E000E126EFEEC03F09F
:1005D80003C02AF004C02BF005C02CF006C02DF093
:1005E80007C02EF008C02FF009C030F00AC031F063
:1005F8002A50300FDF6E3206D8A033063406D8A052
:10060800350636C003F037C004F038C005F039C0ED
:1006180006F03AC007F03BC008F03CC009F03DC006
:100628000AF00A0E0B6E000E0C6E000E0D6E000E18
:100638000E6E000E0F6E000E106E000E116E000E84
:10064800126E86EC03F003C036F004C037F005C024
:1006580038F006C039F007C03AF008C03BF009C0CE
:100668003CF00AC03DF03E503F10D8B43EEF03F0D6
:1006780040EF03F071EF03F036503710381039109F
:100688003A103B103C103D10D8A44DEF03F04FEF4B
:1006980003F0C1EF02F033BE5CEF03F0335006E124
:1006A8003204D8B05AEF03F05CEF03F0C1EF02F068
:1006B80035BE67EF03F0355008E13404D8A067EF82
:1006C80003F069EF03F071EF03F0000166B36FEF19
:1006D80003F071EF03F0C1EF02F020C015F021C064
:1006E80016F07D0E3E24176E000E3F20186E34C0A3
:1006F80019F035C01AF066EC04F015C020F016C0E9
:1007080021F0120020EE13F0070EDE6AE806FDE283
:100718000B500C100D100E100F101010111012109D
:10072800D8B499EF03F09BEF03F0EDEF03F0010E5F
:100738001B6EA9EF03F0D8900B360C360D360E362B
:100748000F361036113612361B2A12AEAEEF03F0F2
:10075800B0EF03F09FEF03F0D89013361436153638
:1007680016361736183619361A360B50035C0C50E5
:1007780004580D5005580E5006580F500758105081
:1007880008581150095812500A58D8A0CEEF03F053
:10079800D0EF03F0E1EF03F00B50035E0C50045A66
:1007A8000D50055A0E50065A0F50075A1050085A45
:1007B8001150095A12500A5A1380D8901232113225
:1007C80010320F320E320D320C320B321B2EB0EFBC
:1007D80003F013C003F014C004F015C005F016C0F0
:1007E80006F017C007F018C008F019C009F01AC0C1
:1007F8000AF012000B500C100D100E100F101010F4
:1008080011101210D8B40BEF04F00DEF04F055EFEF
:1008180004F0010E136E1BEF04F0D8900B360C3663
:100828000D360E360F36103611361236132A12AE22
:1008380020EF04F022EF04F011EF04F00B50035CFA
:100848000C5004580D5005580E5006580F500758B4
:10085800105008581150095812500A58D8A037EFAC
:1008680004F039EF04F049EF04F00B50035E0C502C
:10087800045A0D50055A0E50065A0F50075A105078
:10088800085A1150095A12500A5AD8901232113285
:1008980010320F320E320D320C320B32132E22EF81
:1008A80004F003C003F004C004F005C005F006C05E
:1008B80006F007C007F008C008F009C009F00AC030
:1008C8000AF01200000166A16CEF04F06EEF04F06C
:1008D80078EF04F017C00EF018C00FF015C010F034
:1008E80016C011F073EC05F01ABE7DEF04F07FEF2F
:1008F80004F085EF04F019C01EF01AC01FF089EF4C
:1009080004F0000E1F6E000E1E6E000E1D6E000E0F
:100918001C6E9BEF04F0000E066E200E056E15C0CF
:1009280007F016C008F0C9EC04F01C4A1D2A1E5036
:100938001C5C1D50800A1B6E1F50800A1B58D8A0D3
:10094800A8EF04F0AAEF04F08FEF04F0000166B1FD
:10095800B0EF04F0B2EF04F0BCEF04F017C00EF0F3
:1009680018C00FF015C010F016C011F073EC05F0A8
:1009780017C003F018C004F0D4EC05F01E5003248F
:10098800156E1F500420166E120007500810D8B4B8
:10099800D0EF04F0D2EF04F0DBEF04F007500810BA
:1009A800D8A4D9EF04F0DBEF04F0E0EF04F0055031
:1009B800F5EC06F013EF05F020EE04F00750D92609
:1009C8000850DA22DE50DE10D8B4EDEF04F0EFEF75
:1009D80004F00AEF05F020EE04F00750D92608507D
:1009E800DA2210EE02F00750E1260850E222DE502B
:1009F800E65CE650800A0D6EDE50800A0D58D8B0CD
:100A080008EF05F00AEF05F013EF05F020EE02F00D
:100A18000750D9260850DA22DE2A000EDD221200FD
:100A280055C059F056C05AF0000E0001616F000E13
:100A3800606F32EF05F053C040F054C041F0590EDA
:100A4800426E000E436E57C044F058C045F07EEC2D
:100A580001F04050000160274150612359C0F6FF62
:100A68005AC0F7FFF86A0800F5500009D8A43FEF0C
:100A780005F041EF05F01FEF05F060C053F061C0CD
:100A880054F01200000162516311D8A44EEF05F032
:100A980050EF05F056EF05F062C023F063C024F074
:100AA8005CEF05F0FF0E6225236EFF0E6321246EB6
:100AB80022C07DF0000E7E6F20C015F021C016F018
:100AC8007D0E176E000E186E23C019F024C01AF0A0
:100AD80066EC04F015C020F016C021F01200000EDC
:100AE800146E000E136E84EF05F012C005F0066A4E
:100AF80010C007F011C008F0C9EC04F0134A142A1A
:100B080013500E24D96E14500F20DA6EDF50126E77
:100B18001250D8A492EF05F094EF05F079EF05F0A4
:100B28001200080EB86E900EAB6E240EAC6E820EDC
:100B3800AF6E060EB06E000E036E000E046E09EC6A
:100B480007F0000E036E000E046E04EC07F0000EB2
:100B5800036E000E046E0EEC07F0000E00017C6FB1
:100B68001200000E896E000E8A6E000E8B6EFC0E4F
:100B7800926E1B0E936EB90E946E3C0E0F013A6F77
:100B88002F0E396F2F0E386F000E616EF18E62884E
:100B98002A0E036E0E0E046EFFEC06F0F2861200AB
:100BA80003C005F004C006F0DCEF05F0034A042A90
:100BB80003C0D9FF04C0DAFFDF50D8A4E6EF05F080
:100BC800E8EF05F0DAEF05F00550035C036E065018
:100BD8000458046E120003C005F004C006F0D89053
:100BE80006320532D890063205320550676E03C0CA
:100BF80005F0030E0516053AF00E05166650CF0BE4
:100C08000510666E120003C005F004C006F0D89007
:100C180006320532D890063205320550BE6E03C042
:100C280005F0030E0516053AF00E0516BD50CF0B5C
:100C38000510BD6E12000001AA51AB11D8B427EF00
:100C480006F029EF06F035EF06F002D835EF06F08A
:100C58000500FA6EAA51FD6EAB51FE6EFF6AFA509E
:100C6800120012009EAA3BEF06F03DEF06F036EFA9
:100C780006F0000E00017C6FABA245EF06F047EFCF
:100C880006F049EF06F0AB98AB88AE5012009F0E05
:100C98000001A36F000EA46F000E536E000E546E79
:100CA8009DC055F09EC056F0A30E576E000E586EAC
:100CB80014EC05F0120013EC07F0B5EC05F0B3ECFA
:100CC80006F085EC06F095EC06F0EEEC06F0A5ECE7
:100CD80006F072EC06F095EC05F01200D59CD7688A
:100CE800F50ED66ED650D7CF03F0046A03C004F0D1
:100CF800036A03105B6E04505C6EF294930ED56E1B
:100D080012003C0E666E000E646E800E656E010E5B
:100D1800636E000E686E7F0E676EE70E0F0149174F
:100D280012003C0EBD6E000EB66E800EB76E010E40
:100D3800B96E000EBF6E7F0EBE6EFC0E0F01491716
:100D48001200000ECC6EFD0ECF6E800ECE6ECECF92
:100D580072F0CFCF73F09E90410ECD6E1200700EE0
:100D6800D36E040ED26E400E9B6ED2AEBEEF06F06E
:100D7800C0EF06F0B9EF06F0120000EE60F03D0E8D
:100D8800EE6AE806FDE15C6A5B6A5D905D920001CF
:100D980021EF00F0036E9EA8D4EF06F0D6EF06F020
:100DA800CFEF06F003C0ADFF120062A8DEEF06F039
:100DB800E0EF06F0E2EF06F01FEC06F0F29012000A
:100DC8009EBAE9EF06F0ECEF06F0010EEDEF06F043
:100DD800000E1200BB68000EBC6E9E92040EBA6E26
:100DE8001200046E0450CEEC06F012000450D76EC8
:100DF80003C0D6FF120003C0AAF004C0ABF0120073
:100E080003C076F004C077F0120003C078F004C085
:100E180079F0120003C074F004C075F01200D09E7F
:040E280012001200A2
:10FE6C00002D2D2D2D2D2D2D2D2D2D2D2D2D2D2DE3
:10FE7C002D2D2D2D2D2D2D2D2D2D2D2D2D2D2D2DA6
:10FE8C002D2D2D2D2D2D2D2D2D2D2D2D2D2D2D2D96
:10FE9C002D2D0D0A00723A20526561642072616E3C
:10FEAC00676566696E6465722076616C75652E0D8A
:10FEBC000A004F62737461636C652D61766F6964BF
:10FECC00696E672074616E6B200D0A0046696E6165
:10FEDC006C2070726F6A656374207465726D696EE4
:10FEEC00616C200D0A007A3A20436C6561722074B3
:10FEFC006865207465726D696E616C2E0D0A006305
:10FF0C003A20546573742074696D65722070657243
:10FF1C00696F642E0D0A00456E746572696E6720F8
:10FF2C00666F72206C6F6F702E2E2E0D0A004D6F47
:10FF3C00746F727320746F67676C6564206F66668C
:10FF4C002E0D0A005A3A2052657365742070726F38
:10FF5C00636573736F722E0D0A004D6F746F72733D
:10FF6C0020746F67676C6564206F6E2E0D0A0074C9
:10FF7C003A20546F67676C65206D6F746F72732EC7
:10FF8C000D0A00446576656C6F706D656E74204269
:10FF9C006F6172640D0A0045786974656420666F40
:10FFAC0072206C6F6F702E0D0A00556E6B6E6F7732
:10FFBC006E206B65792025630D0A004469737461AA
:10FFCC006E6365203D2025750D0A003F3A2068655B
:10FFDC006C70206D656E750D0A006F3A2020202024
:10FFEC0020206F6B0D0A006F3A206B0D0A000D0A72
:04FFFC003E200000A3
:020000040020DA
:08000000FFFFFFFFFFFFFFFF00
:020000040030CA
:0E000000FF281F3CFFBF85FF0FC00FE00F4021
:00000001FF
