:020000040000FA
:040000001FEF00F0FE
:100008005582FACF09F0FBCF0AF0F2A60EEF00F006
:1000180010EF00F019EF00F0F2A015EF00F017EF65
:1000280000F019EF00F056EC07F00AC0FBFF09C01A
:10003800FAFF55921100EFEF06F0000E0001B16FC4
:10004800000EB26FC9EC06F08990000E0C6E0B68BA
:1000580086EC06F0000E0C6E0B686EEC06F0910E46
:100068000001A76FFF0EA86FB5EC06F0F10E0001B6
:10007800A76FFE0EA86FB5EC06F0D70E0001A76FAC
:10008800FE0EA86FB5EC06F0F90E0001A76FFF0E83
:10009800A86FB5EC06F06C0E0B6E0C0E0C6E7DECBA
:1000A80007F0F28CF28E7FEF01F0670EA76FFE0E5D
:1000B800A86FB5EC06F0D60E0001A76FFF0EA86F6B
:1000C800B5EC06F0F20E0001A76FFF0EA86FB5ECB5
:1000D80006F0520E0001A76FFF0EA86FB5EC06F0F0
:1000E8000B0E0001A76FFF0EA86FB5EC06F07D0E92
:1000F8000001A76FFF0EA86FB5EC06F0BA0E00015D
:10010800A76FFE0EA86FB5EC06F0240E0001A76FCE
:10011800FF0EA86FB5EC06F0670E0001A76FFE0E84
:10012800A86FB5EC06F057EF00F0E50EA76FFF0ECD
:10013800A86FB5EC06F057EF00F0000EB46FEF0EA5
:10014800A76FFE0EA86FB5EC06F00001B42B270EC2
:10015800B465B1EF00F0B3EF00F0A3EF00F0FF00DB
:1001680057EF00F0000EB46FEF0EA76FFE0EA86FEA
:10017800B5EC06F00001B42B270EB465C6EF00F00D
:10018800C8EF00F0B8EF00F057EF00F0B151D8B465
:10019800D0EF00F0D2EF00F0DDEF00F0000EB16F0D
:1001A80089903C0EA76FFF0EA86FB5EC06F057EFCD
:1001B80000F0010EB16F73EC07F08980000E0C6E31
:1001C800800E0B6E86EC06F0000E0C6E800E0B6E29
:1001D8006EEC06F0680E0001A76FFF0EA86FB5EC75
:1001E80006F057EF00F0898AF294FF0E0C6EF60EB7
:1001F8000B6E69EC07F0F2A404EF01F006EF01F0D2
:10020800FFEF00F0899AC60E0001A76FFF0EA86FD6
:1002180066C0A9F067C0AAF0B5EC06F057EF00F089
:100228009B0EA76FFE0EA86FB5EC06F078EC05F0F4
:1002380078EC05F078EC05F078EC05F0B60E0001E6
:10024800A76FFF0EA86FB5EC06F057EF00F0899086
:10025800000E0C6EC80E0B6E86EC06F0000E0C6ECF
:10026800C80E0B6E6EEC06F0898AF294FF0E0C6EC7
:10027800F60E0B6E69EC07F0F2A445EF01F047EFBC
:1002880001F040EF01F0899A090E0001665D070E42
:100298006759D8B052EF01F054EF01F057EF01F071
:1002A800B22B59EF01F0000EB26F020EB2655FEF8C
:1002B80001F061EF01F06BEF01F0899078EC07F045
:1002C800898078EC05F078EC05F06FEF01F0899003
:1002D80073EC07F0898078EC05F038EF01F0A50E93
:1002E800A76FFF0EA86F000EAA6F410EA96FB5EC9D
:1002F80006F057EF00F0410E0001AF6F000EB06F2F
:10030800B051000AD8B48BEF01F073EF01F0AF5190
:100318003F0AD8B459EF00F07E0AD8B42BEF01F0A9
:100328001B0AD8B4A1EF00F0390AD8B414EF01F0D1
:100338000C0AD8B499EF00F01D0AD8B4F7EF00F012
:10034800060AD8B4CAEF00F00E0AD8B4B6EF00F027
:1003580073EF01F01FEF00F090C0D9FF91C0DAFFF2
:10036800DECFF6FFDDCFF7FFF86A0800F550250A63
:10037800D8A4C1EF01F0C3EF01F09DEF02F090C0E7
:10038800D9FF91C0DAFFDE2A000EDD22000E4B6E87
:10039800000E4A6E4AC04EF04BC04FF04C684D6894
:1003A80090C0D9FF91C0DAFFDECFF6FFDDCFF7FFAF
:1003B800F86A0800F550630AD8A4E5EF01F0E7EF02
:1003C80001F00FEF02F090C0D9FF91C0DAFFDE2AEA
:1003D800000EDD2292C0D9FF93C0DAFFDFCF94F080
:1003E800020EDE26DFCF95F0000EDD2294C0D9FF85
:1003F80095C0DAFFDF500001A06F8EC028F08FC0D3
:1004080029F0A0C02AF0A9EC05F028C08EF029C078
:100418008FF0B9EF02F090C0D9FF91C0DAFFDECFBC
:10042800F6FFDDCFF7FFF86A0800F550750AD8A483
:1004380020EF02F022EF02F064EF02F090C0D9FF43
:1004480091C0DAFFDE2A000EDD2292C0D9FF93C0E8
:10045800DAFFDFCF94F0020EDE26DFCF95F0000E34
:10046800DD2294C0D9FF95C0DAFFDECF96F0DDCF4C
:1004780097F096C098F097C099F000019A6B9B6B23
:100488009C6B9D6B9E6B9F6B8EC028F08FC029F074
:1004980098C02AF099C02BF09AC02CF09BC02DF080
:1004A8009CC02EF09DC02FF09EC030F09FC031F050
:1004B800BAEC02F028C08EF029C08FF0B9EF02F034
:1004C80090C0D9FF91C0DAFFDECFF6FFDDCFF7FF8E
:1004D800F86A0800F550250AD8A475EF02F077EFFE
:1004E80002F08FEF02F090C0D9FF91C0DAFFDE2A48
:1004F800000EDD22000E0E6E250E0D6E8EC00FF062
:100508008FC010F0FBEC04F0000E00018F6F010E9D
:100518008E6FB9EF02F090C0D9FF91C0DAFFDE2AE2
:10052800000EDD22000E00018F6F000E8E6FB9EFF6
:1005380002F090C0D9FF91C0DAFFDECFF6FFDDCF21
:10054800F7FFF86A0800F5500D6E0E6A8EC00FF0BE
:100558008FC010F0FBEC04F090C0D9FF91C0DAFF17
:10056800DE2A000EDD2288EF02F012004DBEBFEF3A
:1005780002F0C1EF02F0C2EF02F04E924DBECFEF93
:1005880002F04D5006E14C04D8B0CDEF02F0CFEFA9
:1005980002F0D5EF02F0000E3B6E010E3A6ED9EF75
:1005A80002F04CC03AF04DC03BF04AC03CF04BC0A2
:1005B8003DF02AC03EF02BC03FF02CC040F02DC0CB
:1005C80041F02EC042F02FC043F030C044F031C09B
:1005D80045F0000E476E1F0E466E000E00018D6F2F
:1005E8006CEF03F04606D8A047066E0E4624D96E77
:1005F800000E4720DA6E3EC00BF03FC00CF040C042
:100608000DF041C00EF042C00FF043C010F044C0DE
:1006180011F045C012F00A0E136E000E146E000E93
:10062800156E000E166E000E176E000E186E000E78
:10063800196E000E1A6E32EC04F00BC032F00CC0CA
:1006480033F00DC034F00EC035F00FC036F010C0D6
:1006580037F011C038F012C039F03250300FDF6E69
:100668003A06D8A03B063C06D8A03D063EC00BF093
:100678003FC00CF040C00DF041C00EF042C00FF07A
:1006880043C010F044C011F045C012F00A0E136EBA
:10069800000E146E000E156E000E166E000E176E0C
:1006A800000E186E000E196E000E1A6EBAEC03F0EA
:1006B8000BC03EF00CC03FF00DC040F00EC041F042
:1006C8000FC042F010C043F011C044F012C045F012
:1006D80046504710D8B473EF03F075EF03F0A5EF59
:1006E80003F03E503F104010411042104310441098
:1006F8004510D8A482EF03F084EF03F0F6EF02F080
:100708003BBE91EF03F03B5006E13A04D8B08FEFBF
:1007180003F091EF03F0F6EF02F03DBE9CEF03F01B
:100728003D5008E13C04D8A09CEF03F09EEF03F095
:10073800A5EF03F04EB2A3EF03F0A5EF03F0F6EF39
:1007480002F028C01DF029C01EF06E0E46241F6E50
:10075800000E4720206E3CC021F03DC022F09AECEC
:1007680004F01DC028F01EC029F0120020EE1BF076
:10077800070EDE6AE806FDE2135014101510161075
:100788001710181019101A10D8B4CDEF03F0CFEFC6
:1007980003F021EF04F0010E236EDDEF03F0D89093
:1007A80013361436153616361736183619361A36DD
:1007B800232A1AAEE2EF03F0E4EF03F0D3EF03F0DD
:1007C800D8901B361C361D361E361F36203621366D
:1007D800223613500B5C14500C5815500D581650F7
:1007E8000E5817500F5818501058195011581A50C1
:1007F8001258D8A002EF04F004EF04F015EF04F04B
:1008080013500B5E14500C5A15500D5A16500E5AB0
:1008180017500F5A1850105A1950115A1A50125A84
:100828001B80D8901A321932183217321632153204
:1008380014321332232EE4EF03F01BC00BF01CC05C
:100848000CF01DC00DF01EC00EF01FC00FF020C030
:1008580010F021C011F022C012F012001350141031
:10086800151016101710181019101A10D8B43FEFD9
:1008780004F041EF04F089EF04F0010E1B6E4FEF16
:1008880004F0D8901336143615361636173618363F
:1008980019361A361B2A1AAE54EF04F056EF04F034
:1008A80045EF04F013500B5C14500C5815500D58BC
:1008B80016500E5817500F581850105819501158F4
:1008C8001A501258D8A06BEF04F06DEF04F07DEFCA
:1008D80004F013500B5E14500C5A15500D5A165054
:1008E8000E5A17500F5A1850105A1950115A1A50B8
:1008F800125AD8901A321932183217321632153263
:10090800143213321B2E56EF04F00BC00BF00CC040
:100918000CF00DC00DF00EC00EF00FC00FF010C09F
:1009280010F011C011F012C012F012004EA09FEF8B
:1009380004F0A1EF04F0ABEF04F01FC016F020C0E4
:1009480017F01DC018F01EC019F0D6EC05F022BE35
:10095800B0EF04F0B2EF04F0B8EF04F021C026F0D5
:1009680022C027F0BCEF04F0000E276E000E266EA2
:10097800000E256E000E246ECEEF04F0000E0E6EF3
:10098800200E0D6E1DC00FF01EC010F0FBEC04F021
:10099800244A252A2650245C2550800A236E275095
:1009A800800A2358D8A0DBEF04F0DDEF04F0C2EF93
:1009B80004F04EB0E2EF04F0E4EF04F0EEEF04F0E0
:1009C8001FC016F020C017F01DC018F01EC019F087
:1009D800D6EC05F01FC00BF020C00CF053EC06F06D
:1009E80026500B241D6E27500C201E6E12000F502F
:1009F8001010D8B402EF05F004EF05F00DEF05F084
:100A08000F501010D8A40BEF05F00DEF05F012EF02
:100A180005F00D506EEC07F045EF05F020EE04F000
:100A28000F50D9261050DA22DE50DE10D8B41FEF4E
:100A380005F021EF05F03CEF05F020EE04F00F5033
:100A4800D9261050DA2210EE02F00F50E12610508D
:100A5800E222DE50E65CE650800A156EDE50800A1F
:100A68001558D8B03AEF05F03CEF05F045EF05F022
:100A780020EE02F00F50D9261050DA22DE2A000E9E
:100A8800DD221200A3C048F0A4C049F0000E000106
:100A9800616F000E606F64EF05F0A1C08EF0A2C018
:100AA8008FF0480E906F000E916FA5C092F0A6C00F
:100AB80093F0B0EC01F000018E5160278F51612353
:100AC80048C0F6FF49C0F7FFF86A0800F55000096A
:100AD800D8A471EF05F073EF05F051EF05F060C091
:100AE800A1F061C0A2F01200000E0E6E000E0D6E95
:100AF800000E106E000E0F6EF294FF0E0C6EF60EC6
:100B08000B6E69EC07F0F2A48CEF05F08EEF05F0A0
:100B180087EF05F00F4A102A105009E19E0E0F5C6E
:100B2800D8A099EF05F09BEF05F080EF05F00D4A8E
:100B38000E2A0E5009E19E0E0D5CD8A0A6EF05F016
:100B4800A8EF05F07CEF05F012004A504B10D8A42E
:100B5800B0EF05F0B2EF05F0B8EF05F04AC02BF0A2
:100B68004BC02CF0BEEF05F0FF0E4A242B6EFF0E93
:100B78004B202C6E2AC06EF0000E00016F6F28C04B
:100B88001DF029C01EF06E0E1F6E000E206E2BC0C9
:100B980021F02CC022F09AEC04F01DC028F01EC0F1
:100BA80029F01200000E1C6E000E1B6EE7EF05F018
:100BB8001AC00DF00E6A18C00FF019C010F0FBEC47
:100BC80004F01B4A1C2A1B501624D96E1C501720EF
:100BD800DA6EDF501A6E1A50D8A4F5EF05F0F7EF69
:100BE80005F0DCEF05F01200000E896E000E8A6E2B
:100BF800000E8B6EDC0E926E1F0E936EB90E946E05
:100C08003C0E0F013A6F2F0E396F2F0E386F000E02
:100C1800616EF18E6288260E0B6E0F0E0C6E7DECE7
:100C280007F0F2861200080EB86E900EAB6E240E16
:100C3800AC6E820EAF6E060EB06E000E0B6E000E1E
:100C48000C6E87EC07F0000E0B6E000E0C6E82EC3B
:100C580007F0000E0B6E000E0C6E8CEC07F0000E09
:100C6800546E120081A83BEF06F03DEF06F045EF09
:100C780006F020EC07F001C064F002C065F052EF06
:100C880006F020EC07F001C062F002C063F000013A
:100C98006451625D666F65516359676F12000BC0DE
:100CA8000DF00CC00EF05BEF06F00B4A0C2A0BC0DF
:100CB800D9FF0CC0DAFFDF50D8A465EF06F067EF64
:100CC80006F059EF06F00D500B5C0B6E0E500C58E9
:100CD8000C6E12000BC00DF00CC00EF0D8900E3246
:100CE8000D32D8900E320D320D50676E0BC00DF0DC
:100CF800030E0D160D3AF00E0D166650CF0B0D10A3
:100D0800666E12000BC00DF00CC00EF0D8900E32BB
:100D18000D32D8900E320D320D50BE6E0BC00DF054
:100D2800030E0D160D3AF00E0D16BD50CF0B0D101B
:100D3800BD6E12000001B551B611D8B4A6EF06F089
:100D4800A8EF06F0B4EF06F002D8B4EF06F00500FD
:100D5800FA6EB551FD6EB651FE6EFF6AFA5012007A
:100D68001200A90E0001AD6F000EAE6F000EA16F4C
:100D7800000EA26FA7C0A3F0A8C0A4F0AD0EA56F87
:100D8800000EA66F46EC05F0120091EC07F0F8ECA7
:100D980005F03DEC07F000EC07F010EC07F061EC13
:100DA80007F02FEC07F0DCEC06F017EC06F0120069
:100DB800D59CD768F50ED66ED650D7CF0BF00C6AF7
:100DC8000BC00CF00B6A0B10526E0C50536EF29461
:100DD800930ED56E120000EE60F02E0EEE6AE80655
:100DE800FDE100EE4AF00B0EEE6AE806FDE15590D3
:100DF8005592000121EF00F03C0E666E000E646E05
:100E0800800E656E010E636E000E686E1F0E676EB3
:100E1800E70E0F01491712003C0EBD6E000EB66EAC
:100E2800800EB76E010EB96E000EBF6E1F0EBE6E3D
:100E3800FC0E0F0149171200D6CF07F0D7CF08F0E4
:100E48000850036E0750056E03C006F005C001F098
:100E580006C002F01200000ECC6E000ECF6E000E1F
:100E6800CE6ECECF50F0CFCF51F09E90010ECD6E0A
:100E78001200700ED36E040ED26E400E9B6ED2AE70
:100E880048EF07F04AEF07F043EF07F012000B6E48
:100E98009EA851EF07F053EF07F04CEF07F00BC097
:100EA800ADFF120062A85BEF07F05DEF07F05FEFA0
:100EB80007F09EEC06F0F29012003F0EBB6E000E9B
:100EC800BC6E9E92060EBA6E12000C50D76E0BC006
:100ED800D6FF12000C6E0C504BEC07F012008A8CF7
:100EE8008A9E8A8A899212008A8C8A9E8A9A898224
:100EF80012000BC0B5F00CC0B6F012000BC06AF0BF
:100F08000CC06BF012000BC06CF00CC06DF012003E
:100F18000BC068F00CC069F01200D09E12001200DD
:10FE6600002D2D2D2D2D2D2D2D2D2D2D2D2D2D2DE9
:10FE76002D2D2D2D2D2D2D2D2D2D2D2D2D2D2D2DAC
:10FE86002D2D2D2D2D2D2D2D2D2D2D2D2D2D2D2D9C
:10FE96002D2D0D0A00456E746572696E67206F6EB2
:10FEA600652D7365636F6E642064656C61792E2EB3
:10FEB6002E0D0A00723A20526561642072616E67E7
:10FEC6006566696E6465722076616C75652E0D0ACD
:10FED600004F62737461636C652D61766F69646946
:10FEE6006E672074616E6B200D0A0046696E616C48
:10FEF6002070726F6A656374207465726D696E61D5
:10FF06006C200D0A007A3A20436C65617220746891
:10FF160065207465726D696E616C2E0D0A00633A18
:10FF260020546573742074696D65722070657269FA
:10FF36006F642E0D0A004D6F746F727320746F67B5
:10FF4600676C6564206F66662E0D0A005A3A205269
:10FF5600657365742070726F636573736F722E0DAF
:10FF66000A004D6F746F727320746F67676C6564F7
:10FF7600206F6E2E0D0A00743A20546F67676C6509
:10FF8600206D6F746F72732E0D0A00446576656C72
:10FF96006F706D656E7420426F6172640D0A005554
:10FFA6006E6B6E6F776E206B65792025630D0A0088
:10FFB6004578697465642064656C61792E0D0A0064
:10FFC60044697374616E6365203D2025750D0A00D2
:10FFD6003F3A2068656C70206D656E750D0A006F7E
:10FFE6003A2020202020206F6B0D0A006F3A206BEC
:09FFF6000D0A000D0A3E20000076
:020000040020DA
:08000000FFFFFFFFFFFFFFFF00
:020000040030CA
:0E000000FF281F3CFFBF85FF0FC00FE00F4021
:00000001FF
