:020000040000FA
:04000000B5EF0BF05D
:10100000002D2D2D2D2D2D2D2D2D2D2D2D2D2D2D3D
:101010002D2D2D2D2D2D2D2D2D2D2D2D2D2D2D2D00
:101020002D2D2D2D2D2D2D2D2D2D2D2D2D2D2D2DF0
:101030002D2D0D0A004F62737461636C652D61760E
:101040006F6964696E672074616E6B200D0A0046DB
:10105000696E616C2070726F6A656374207465726A
:101060006D696E616C200D0A007A3A20436C6561EF
:101070007220746865207465726D696E616C2E0DE6
:101080000A005A3A2052657365742070726F636566
:1010900073736F722E0D0A00446576656C6F706D08
:1010A000656E7420426F6172640D0A00556E6B6E3E
:1010B0006F776E206B65792025630D0A003F3A201B
:1010C00068656C70206D656E750D0A006F3A2020A2
:1010D000202020206F6B0D0A006F3A206B0D0A0054
:1010E0000D0A3E20000025C0D9FF26C0DAFFDECF62
:1010F000F6FFDDCFF7FFF86A0800F550250AD8A4FF
:1011000084EF08F086EF08F008EF09F025C0D9FF5A
:1011100026C0DAFFDE2A000EDD22000E4D6E000E24
:101120004C6E4CC050F04DC051F04E684F6825C019
:10113000D9FF26C0DAFFDECFF6FFDDCFF7FFF86A72
:101140000800F550630AD8A4A8EF08F0AAEF08F049
:10115000D1EF08F025C0D9FF26C0DAFFDE2A000E45
:10116000DD2227C0D9FF28C0DAFFDFCF29F0020E29
:10117000DE26DFCF2AF0000EDD2229C0D9FF2AC0EB
:10118000DAFFDF502B6E23C01EF024C01FF02BC0EF
:1011900020F0A9EC0AF01EC023F01FC024F024EFB9
:1011A00009F025C0D9FF26C0DAFFDECFF6FFDDCF7C
:1011B000F7FFF86A0800F550250AD8A4E2EF08F016
:1011C000E4EF08F0FBEF08F025C0D9FF26C0DAFFF6
:1011D000DE2A000EDD22000E046E250E036E23C0F3
:1011E00005F024C006F02EEC0AF0000E246E010E6D
:1011F000236E24EF09F025C0D9FF26C0DAFFDE2ACE
:10120000000EDD22000E246E000E236E24EF09F086
:1012100025C0D9FF26C0DAFFDECFF6FFDDCFF7FF0E
:10122000F86A0800F550036E046A23C005F024C074
:1012300006F02EEC0AF025C0D9FF26C0DAFFDE2A20
:10124000000EDD22F5EF08F0120084EC0BF0980E92
:10125000346E100E356E71EC0BF04F0E346E100EB6
:10126000356E71EC0BF0350E346E100E356E71EC80
:101270000BF0E00E346E100E356E71EC0BF0DDEC01
:101280000BF00009D8B447EF09F049EF09F03FEF40
:1012900009F05DEC0BF03E6EAEEF09F0010E346E1E
:1012A000100E356E71EC0BF0BD0E346E100E356EF7
:1012B00071EC0BF0D90E346E100E356E71EC0BF034
:1012C000820E346E100E356E71EC0BF0690E346EBA
:1012D000100E356E71EC0BF0010E346E100E356E83
:1012E00071EC0BF03FEF09F0CC0E346E100E356E42
:1012F00071EC0BF03FEF09F0000E3F6E4D0E346EB7
:10130000100E356E71EC0BF03F2A270E3F648BEF09
:1013100009F08DEF09F07EEF09F0FF003FEF09F0D3
:10132000000E3F6E4D0E346E100E356E71EC0BF0EC
:101330003F2A270E3F649FEF09F0A1EF09F092EFDB
:1013400009F03FEF09F0AC0E346E100E356E3EC062
:1013500036F0376A71EC0BF03FEF09F03E503C6E0F
:101360003D6A3D50000AD8B4B8EF09F0A3EF09F088
:101370003C503F0AD8B44EEF09F0650AD8B47CEF70
:1013800009F0350AD8B474EF09F0150AD8B490EF13
:1013900009F0A3EF09F000EF00F050A0D2EF09F040
:1013A000D4EF09F0DEEF09F015C00CF016C00DF017
:1013B00013C00EF014C00FF0D6EC0AF018BEE3EF25
:1013C00009F0E5EF09F0EBEF09F017C01CF018C0C9
:1013D0001DF0EFEF09F0000E1D6E000E1C6E000EEA
:1013E0001B6E000E1A6E01EF0AF0000E046E200E46
:1013F000036E13C005F014C006F02EEC0AF01A4A72
:101400001B2A1C501A5C1B50800A196E1D50800A42
:101410001958D8A00EEF0AF010EF0AF0F5EF09F016
:1014200050B015EF0AF017EF0AF021EF0AF015C0DF
:101430000CF016C00DF013C00EF014C00FF0D6EC77
:101440000AF015C001F016C002F017EC0BF01C50AA
:101450000124136E1D500220146E12000550061058
:10146000D8B435EF0AF037EF0AF040EF0AF0055034
:101470000610D8A43EEF0AF040EF0AF045EF0AF05C
:101480000350F6EC0BF078EF0AF020EE04F0055074
:10149000D9260650DA22DE50DE10D8B452EF0AF018
:1014A00054EF0AF06FEF0AF020EE04F00550D92651
:1014B0000650DA2210EE02F00550E1260650E22234
:1014C000DE50E65CE650800A0B6EDE50800A0B5858
:1014D000D8B06DEF0AF06FEF0AF078EF0AF020EE67
:1014E00002F00550D9260650DA22DE2A000EDD224F
:1014F00012002EC032F02FC033F0000E4B6E000EE3
:101500004A6E95EF0AF02CC023F02DC024F0320E65
:10151000256E000E266E30C027F031C028F073EC27
:1015200008F023504A2624504B2232C0F6FF33C025
:10153000F7FFF86A0800F5500009D8A4A2EF0AF0F6
:10154000A4EF0AF083EF0AF04AC02CF04BC02DF054
:1015500012004C504D10D8A4B0EF0AF0B2EF0AF0D0
:10156000B8EF0AF04CC021F04DC022F0BEEF0AF0F7
:10157000FF0E4C24216EFF0E4D20226E20C060F025
:10158000000E0001616F1EC013F01FC014F0600E4A
:10159000156E000E166E21C017F022C018F0CDECAB
:1015A00009F013C01EF014C01FF01200000E126EDE
:1015B000000E116EE7EF0AF010C003F0046A0EC0CF
:1015C00005F00FC006F02EEC0AF0114A122A115055
:1015D0000C24D96E12500D20DA6EDF50106E1050B0
:1015E000D8A4F5EF0AF0F7EF0AF0DCEF0AF01200EA
:1015F000080EB86E900EAB6E240EAC6E190EAF6E68
:10160000000EB06E000E016E000E026E00EC0CF0CB
:10161000000E016E000E026EFBEC0BF0000E016E70
:10162000000E026E05EC0CF0000E526E120001C0AE
:1016300003F002C004F01FEF0BF0014A022A01C0C0
:10164000D9FF02C0DAFFDF50D8A429EF0BF02BEF4F
:101650000BF01DEF0BF00350015C016E04500258BB
:10166000026E1200000E896E000E8A6E000E8B6EE6
:10167000DD0E926E1F0E936EB90E946E3C0E0F012E
:101680003A6F3F0E396F2F0E386F000E616EF18E7C
:101690001200D59CFD0ED76E7F0ED66ED650D7CFDA
:1016A00001F0026A01C002F0016A0110426E0250AC
:1016B000436EF2949F0ED56E12009EAA62EF0BF05D
:1016C00064EF0BF05DEF0BF0000E526EABA26BEF10
:1016D0000BF06DEF0BF06FEF0BF0AB98AB88AE50EB
:1016E0001200360E3A6E000E3B6E000E2C6E000E8F
:1016F0002D6E34C02EF035C02FF03A0E306E000E35
:10170000316E79EC0AF0120032EC0BF0EFEC0BF0DA
:1017100095EC0BF0A5EC0BF0E7EC0BF0C4EC0BF048
:1017200049EC0BF0F8EC0AF012001C0E666E000E8D
:10173000646E800E656E010E636E000E686E000EA4
:10174000676EE70E0F01491712001C0EBD6E000EEA
:10175000B66E800EB76E010EB96E000EBF6E000E33
:10176000BE6EFC0E0F014917120000EE60F0200E55
:10177000EE6AE806FDE100EE4AF0090EEE6AE806C0
:10178000FDE1000125EF09F0000ECC6E000ECF6EDA
:10179000000ECE6ECECF40F0CFCF41F09E90010E26
:1017A000CD6E1200016E9EA8D8EF0BF0DAEF0BF0B1
:1017B000D3EF0BF001C0ADFF12009EBAE2EF0BF0C9
:1017C000E5EF0BF0010EE6EF0BF0000E1200000E3D
:1017D000BB6E000EBC6E9E92060EBA6E1200300EEC
:1017E000D36E040ED26E000E9B6E1200026E02507B
:1017F000D2EC0BF0120001C046F002C047F012001C
:1018000001C048F002C049F0120001C044F002C01B
:0418100045F012008D
:020000040020DA
:08000000FFFFFFFFFFFFFFFF00
:020000040030CA
:0E000000FF281F3CFFBF85FF0FC00FE00F4021
:00000001FF
