:020000040000FA
:040000001FEF00F0FE
:100008005582FACF09F0FBCF0AF0F2A60EEF00F006
:1000180010EF00F019EF00F0F2A015EF00F017EF65
:1000280000F019EF00F021EC07F00AC0FBFF09C04F
:10003800FAFF55921100BAEF06F0000E0001B16FF9
:1000480094EC06F08990000E0C6E0B683DEC06F0FF
:10005800000E0C6E0B6825EC06F0910E0001A76FE0
:10006800FF0EA86F6CEC06F0F10E0001A76FFE0EF4
:10007800A86F6CEC06F0D70E0001A76FFE0EA86FF4
:100088006CEC06F0F90E0001A76FFF0EA86F6CEC80
:1000980006F0DA0E0B6E0B0E0C6E48EC07F0F28CC5
:1000A800F28E2CEC07F00009D8B45DEF00F05FEF9A
:1000B80000F055EF00F080EC06F00001B26F6DEF34
:1000C80001F0670EA76FFE0EA86F6CEC06F0D60E57
:1000D8000001A76FFF0EA86F6CEC06F0F20E00018E
:1000E800A76FFF0EA86F6CEC06F0520E0001A76F09
:1000F800FF0EA86F6CEC06F00B0E0001A76FFF0E49
:10010800A86F6CEC06F07D0E0001A76FFF0EA86FBC
:100118006CEC06F0BA0E0001A76FFE0EA86F6CEC2F
:1001280006F0240E0001A76FFF0EA86F6CEC06F016
:10013800670E0001A76FFE0EA86F6CEC06F055EF76
:1001480000F0E50EA76FFF0EA86F6CEC06F055EFF8
:1001580000F0000EB76FEF0EA76FFE0EA86F6CECE5
:1001680006F00001B72B270EB765BDEF00F0BFEF13
:1001780000F0AFEF00F0FF0055EF00F0000EB76F92
:10018800EF0EA76FFE0EA86F6CEC06F00001B72B00
:10019800270EB765D2EF00F0D4EF00F0C4EF00F0FF
:1001A80055EF00F0B151D8B4DCEF00F0DEEF00F00D
:1001B800E9EF00F0000EB16F89903C0EA76FFF0EBB
:1001C800A86F6CEC06F055EF00F0010EB16F8A8C49
:1001D8008A9E8A8A89928980000E0C6E800E0B6E28
:1001E8003DEC06F0000E0C6E800E0B6E25EC06F052
:1001F800680E0001A76FFF0EA86F6CEC06F055EFB4
:1002080000F0898AF294FF0E0C6EF60E0B6E43EC2A
:1002180007F0F2A412EF01F014EF01F00DEF01F076
:10022800899AC60E0001A76FFF0EA86F66C0A9F0D5
:1002380067C0AAF06CEC06F055EF00F09B0EA76FB4
:10024800FE0EA86F6CEC06F0000E0001B46F000EF5
:10025800B36F000EB66F000EB56FF294FF0E0C6E02
:10026800F60E0B6E43EC07F0F2A43DEF01F03FEF02
:1002780001F038EF01F00001B54BB62B3C0EB55D2F
:10028800010EB659D8A04BEF01F04DEF01F031EF58
:1002980001F0B34BB42B3C0EB35D010EB459D8A09A
:1002A80058EF01F05AEF01F02DEF01F0B60EA76FED
:1002B800FF0EA86F6CEC06F055EF00F0A50EA76FC7
:1002C800FF0EA86FB2C0A9F0AA6B6CEC06F055EF50
:1002D80000F0B251AF6FB06BB051000AD8B477EFED
:1002E80001F062EF01F0AF513F0AD8B465EF00F0BA
:1002F800650AD8B4ADEF00F0390AD8B422EF01F09E
:100308000C0AD8B4A5EF00F01D0AD8B405EF01F027
:10031800060AD8B4D6EF00F00E0AD8B4C2EF00F03F
:1003280062EF01F01FEF00F090C0D9FF91C0DAFF33
:10033800DECFF6FFDDCFF7FFF86A0800F550250A93
:10034800D8A4A9EF01F0ABEF01F085EF02F090C05F
:10035800D9FF91C0DAFFDE2A000EDD22000E4B6EB7
:10036800000E4A6E4AC04EF04BC04FF04C684D68C4
:1003780090C0D9FF91C0DAFFDECFF6FFDDCFF7FFDF
:10038800F86A0800F550630AD8A4CDEF01F0CFEF62
:1003980001F0F7EF01F090C0D9FF91C0DAFFDE2A33
:1003A800000EDD2292C0D9FF93C0DAFFDFCF94F0B0
:1003B800020EDE26DFCF95F0000EDD2294C0D9FFB5
:1003C80095C0DAFFDF500001A06F8EC028F08FC003
:1003D80029F0A0C02AF060EC05F028C08EF029C0F2
:1003E8008FF0A1EF02F090C0D9FF91C0DAFFDECF05
:1003F800F6FFDDCFF7FFF86A0800F550750AD8A4B4
:1004080008EF02F00AEF02F04CEF02F090C0D9FFBB
:1004180091C0DAFFDE2A000EDD2292C0D9FF93C018
:10042800DAFFDFCF94F0020EDE26DFCF95F0000E64
:10043800DD2294C0D9FF95C0DAFFDECF96F0DDCF7C
:1004480097F096C098F097C099F000019A6B9B6B53
:100458009C6B9D6B9E6B9F6B8EC028F08FC029F0A4
:1004680098C02AF099C02BF09AC02CF09BC02DF0B0
:100478009CC02EF09DC02FF09EC030F09FC031F080
:10048800A2EC02F028C08EF029C08FF0A1EF02F094
:1004980090C0D9FF91C0DAFFDECFF6FFDDCFF7FFBE
:1004A800F86A0800F550250AD8A45DEF02F05FEF5E
:1004B80002F077EF02F090C0D9FF91C0DAFFDE2A90
:1004C800000EDD22000E0E6E250E0D6E8EC00FF092
:1004D8008FC010F0E3EC04F0000E00018F6F010EE6
:1004E8008E6FA1EF02F090C0D9FF91C0DAFFDE2A2B
:1004F800000EDD22000E00018F6F000E8E6FA1EF3F
:1005080002F090C0D9FF91C0DAFFDECFF6FFDDCF51
:10051800F7FFF86A0800F5500D6E0E6A8EC00FF0EE
:100528008FC010F0E3EC04F090C0D9FF91C0DAFF5F
:10053800DE2A000EDD2270EF02F012004DBEA7EF9A
:1005480002F0A9EF02F0AAEF02F04E924DBEB7EF0B
:1005580002F04D5006E14C04D8B0B5EF02F0B7EF09
:1005680002F0BDEF02F0000E3B6E010E3A6EC1EFD5
:1005780002F04CC03AF04DC03BF04AC03CF04BC0D2
:100588003DF02AC03EF02BC03FF02CC040F02DC0FB
:1005980041F02EC042F02FC043F030C044F031C0CB
:1005A80045F0000E476E1F0E466E000E00018D6F5F
:1005B80054EF03F04606D8A047066E0E4624D96EBF
:1005C800000E4720DA6E3EC00BF03FC00CF040C072
:1005D8000DF041C00EF042C00FF043C010F044C00F
:1005E80011F045C012F00A0E136E000E146E000EC4
:1005F800156E000E166E000E176E000E186E000EA9
:10060800196E000E1A6E1AEC04F00BC032F00CC012
:1006180033F00DC034F00EC035F00FC036F010C006
:1006280037F011C038F012C039F03250300FDF6E99
:100638003A06D8A03B063C06D8A03D063EC00BF0C3
:100648003FC00CF040C00DF041C00EF042C00FF0AA
:1006580043C010F044C011F045C012F00A0E136EEA
:10066800000E146E000E156E000E166E000E176E3C
:10067800000E186E000E196E000E1A6EA2EC03F032
:100688000BC03EF00CC03FF00DC040F00EC041F072
:100698000FC042F010C043F011C044F012C045F042
:1006A80046504710D8B45BEF03F05DEF03F08DEFD1
:1006B80003F03E503F1040104110421043104410C8
:1006C8004510D8A46AEF03F06CEF03F0DEEF02F0F8
:1006D8003BBE79EF03F03B5006E13A04D8B077EF20
:1006E80003F079EF03F0DEEF02F03DBE84EF03F094
:1006F8003D5008E13C04D8A084EF03F086EF03F0F6
:100708008DEF03F04EB28BEF03F08DEF03F0DEEFC9
:1007180002F028C01DF029C01EF06E0E46241F6E80
:10072800000E4720206E3CC021F03DC022F082EC34
:1007380004F01DC028F01EC029F0120020EE1BF0A6
:10074800070EDE6AE806FDE21350141015101610A5
:100758001710181019101A10D8B4B5EF03F0B7EF26
:1007680003F009EF04F0010E236EC5EF03F0D890F3
:1007780013361436153616361736183619361A360D
:10078800232A1AAECAEF03F0CCEF03F0BBEF03F055
:10079800D8901B361C361D361E361F36203621369D
:1007A800223613500B5C14500C5815500D58165027
:1007B8000E5817500F5818501058195011581A50F1
:1007C8001258D8A0EAEF03F0ECEF03F0FDEF03F0C6
:1007D80013500B5E14500C5A15500D5A16500E5AE1
:1007E80017500F5A1850105A1950115A1A50125AB5
:1007F8001B80D8901A321932183217321632153235
:1008080014321332232ECCEF03F01BC00BF01CC0A4
:100818000CF01DC00DF01EC00EF01FC00FF020C060
:1008280010F021C011F022C012F012001350141061
:10083800151016101710181019101A10D8B427EF21
:1008480004F029EF04F071EF04F0010E1B6E37EF8E
:1008580004F0D8901336143615361636173618366F
:1008680019361A361B2A1AAE3CEF04F03EEF04F094
:100878002DEF04F013500B5C14500C5815500D5804
:1008880016500E5817500F58185010581950115824
:100898001A501258D8A053EF04F055EF04F065EF42
:1008A80004F013500B5E14500C5A15500D5A165084
:1008B8000E5A17500F5A1850105A1950115A1A50E8
:1008C800125AD8901A321932183217321632153293
:1008D800143213321B2E3EEF04F00BC00BF00CC089
:1008E8000CF00DC00DF00EC00EF00FC00FF010C0D0
:1008F80010F011C011F012C012F012004EA087EFD4
:1009080004F089EF04F093EF04F01FC016F020C044
:1009180017F01DC018F01EC019F08DEC05F022BEAE
:1009280098EF04F09AEF04F0A0EF04F021C026F04D
:1009380022C027F0A4EF04F0000E276E000E266EEA
:10094800000E256E000E246EB6EF04F0000E0E6E3B
:10095800200E0D6E1DC00FF01EC010F0E3EC04F069
:10096800244A252A2650245C2550800A236E2750C5
:10097800800A2358D8A0C3EF04F0C5EF04F0AAEF0B
:1009880004F04EB0CAEF04F0CCEF04F0D6EF04F058
:100998001FC016F020C017F01DC018F01EC019F0B7
:1009A8008DEC05F01FC00BF020C00CF00AEC06F02F
:1009B80026500B241D6E27500C201E6E12000F505F
:1009C8001010D8B4EAEF04F0ECEF04F0F5EF04F0FF
:1009D8000F501010D8A4F3EF04F0F5EF04F0FAEF7D
:1009E80004F00D503EEC07F02DEF05F020EE04F07A
:1009F8000F50D9261050DA22DE50DE10D8B407EF97
:100A080005F009EF05F024EF05F020EE04F00F5093
:100A1800D9261050DA2210EE02F00F50E1261050BD
:100A2800E222DE50E65CE650800A156EDE50800A4F
:100A38001558D8B022EF05F024EF05F02DEF05F09A
:100A480020EE02F00F50D9261050DA22DE2A000ECE
:100A5800DD221200A3C048F0A4C049F0000E000136
:100A6800616F000E606F4CEF05F0A1C08EF0A2C060
:100A78008FF0480E906F000E916FA5C092F0A6C03F
:100A880093F098EC01F000018E5160278F5161239B
:100A980048C0F6FF49C0F7FFF86A0800F55000099A
:100AA800D8A459EF05F05BEF05F039EF05F060C009
:100AB800A1F061C0A2F012004A504B10D8A467EF11
:100AC80005F069EF05F06FEF05F04AC02BF04BC059
:100AD8002CF075EF05F0FF0E4A242B6EFF0E4B200D
:100AE8002C6E2AC06EF0000E00016F6F28C01DF03A
:100AF80029C01EF06E0E1F6E000E206E2BC021F056
:100B08002CC022F082EC04F01DC028F01EC029F091
:100B18001200000E1C6E000E1B6E9EEF05F01AC030
:100B28000DF00E6A18C00FF019C010F0E3EC04F0D5
:100B38001B4A1C2A1B501624D96E1C501720DA6E2B
:100B4800DF501A6E1A50D8A4ACEF05F0AEEF05F0DE
:100B580093EF05F01200000E896E000E8A6E000EEB
:100B68008B6EDC0E926E1F0E936EB90E946E3C0E59
:100B78000F013A6F2F0E396F2F0E386F000E616E0E
:100B8800F18E6288BC0E0B6E0E0E0C6E48EC07F0F0
:100B9800F2861200080EB86E900EAB6E240EAC6E84
:100BA800820EAF6E060EB06E000E0B6E000E0C6E4F
:100BB80052EC07F0000E0B6E000E0C6E4DEC07F0B9
:100BC800000E0B6E000E0C6E57EC07F0000E546E04
:100BD800120081A8F2EF05F0F4EF05F0FCEF05F044
:100BE800EBEC06F001C064F002C065F009EF06F016
:100BF800EBEC06F001C062F002C063F00001645142
:100C0800625D666F65516359676F12000BC00DF026
:100C18000CC00EF012EF06F00B4A0C2A0BC0D9FFDD
:100C28000CC0DAFFDF50D8A41CEF06F01EEF06F068
:100C380010EF06F00D500B5C0B6E0E500C580C6E3E
:100C480012000BC00DF00CC00EF0D8900E320D3211
:100C5800D8900E320D320D50676E0BC00DF0030E9A
:100C68000D160D3AF00E0D166650CF0B0D10666E70
:100C780012000BC00DF00CC00EF0D8900E320D32E1
:100C8800D8900E320D320D50BE6E0BC00DF0030E13
:100C98000D160D3AF00E0D16BD50CF0B0D10BD6E92
:100CA80012000001B851B911D8B45DEF06F05FEF3A
:100CB80006F06BEF06F002D86BEF06F00500FA6E4F
:100CC800B851FD6EB951FE6EFF6AFA50120012005B
:100CD800A90E0001AD6F000EAE6F000EA16F000EE1
:100CE800A26FA7C0A3F0A8C0A4F0AD0EA56F000E18
:100CF800A66F2EEC05F012009EAA85EF06F087EF8E
:100D080006F080EF06F0000E546EABA28EEF06F0F0
:100D180090EF06F092EF06F0AB98AB88AE50120059
:100D28005CEC07F0AFEC05F008EC07F0CBEC06F054
:100D3800DBEC06F036EC07F0FAEC06F0A7EC06F070
:100D4800CEEC05F01200D59CD768F50ED66ED650BD
:100D5800D7CF0BF00C6A0BC00CF00B6A0B10526E5D
:100D68000C50536EF294930ED56E120000EE60F0A4
:100D78002E0EEE6AE806FDE100EE4AF00B0EEE6A72
:100D8800E806FDE155905592000121EF00F03C0E78
:100D9800666E000E646E800E656E010E636E000E48
:100DA800686E1F0E676EE70E0F01491712003C0EA2
:100DB800BD6E000EB66E800EB76E010EB96E000ED7
:100DC800BF6E1F0EBE6EFC0E0F0149171200D6CF64
:100DD80007F0D7CF08F00850036E0750056E03C020
:100DE80006F005C001F006C002F01200000ECC6E3D
:100DF800000ECF6E000ECE6ECECF50F0CFCF51F09A
:100E08009E90010ECD6E1200700ED36E040ED26E3F
:100E1800400E9B6ED2AE13EF07F015EF07F00EEF02
:100E280007F012000B6E9EA81CEF07F01EEF07F0EC
:100E380017EF07F00BC0ADFF120062A826EF07F00E
:100E480028EF07F02AEF07F055EC06F0F2901200B1
:100E58009EBA31EF07F034EF07F0010E35EF07F0D7
:100E6800000E12003F0EBB6E000EBC6E9E92060E68
:100E7800BA6E12000C6E0C5016EC07F012000C50F3
:100E8800D76E0BC0D6FF12000BC0B8F00CC0B9F07B
:100E980012000BC06AF00CC06BF012000BC06CF0B3
:100EA8000CC06DF012000BC068F00CC069F01200A5
:060EB800D09E12001200A2
:10FE6600002D2D2D2D2D2D2D2D2D2D2D2D2D2D2DE9
:10FE76002D2D2D2D2D2D2D2D2D2D2D2D2D2D2D2DAC
:10FE86002D2D2D2D2D2D2D2D2D2D2D2D2D2D2D2D9C
:10FE96002D2D0D0A00456E746572696E67206F6EB2
:10FEA600652D7365636F6E642064656C61792E2EB3
:10FEB6002E0D0A00723A20526561642072616E67E7
:10FEC6006566696E6465722076616C75652E0D0ACD
:10FED600004F62737461636C652D61766F69646946
:10FEE6006E672074616E6B200D0A0046696E616C48
:10FEF6002070726F6A656374207465726D696E61D5
:10FF06006C200D0A007A3A20436C65617220746891
:10FF160065207465726D696E616C2E0D0A00633A18
:10FF260020546573742074696D65722070657269FA
:10FF36006F642E0D0A004D6F746F727320746F67B5
:10FF4600676C6564206F66662E0D0A005A3A205269
:10FF5600657365742070726F636573736F722E0DAF
:10FF66000A004D6F746F727320746F67676C6564F7
:10FF7600206F6E2E0D0A00743A20546F67676C6509
:10FF8600206D6F746F72732E0D0A00446576656C72
:10FF96006F706D656E7420426F6172640D0A005554
:10FFA6006E6B6E6F776E206B65792025630D0A0088
:10FFB6004578697465642064656C61792E0D0A0064
:10FFC60044697374616E6365203D2025750D0A00D2
:10FFD6003F3A2068656C70206D656E750D0A006F7E
:10FFE6003A2020202020206F6B0D0A006F3A206BEC
:09FFF6000D0A000D0A3E20000076
:020000040020DA
:08000000FFFFFFFFFFFFFFFF00
:020000040030CA
:0E000000FF281F3CFFBF85FF0FC00FE00F4021
:00000001FF
